{
  "_format": "hh-sol-artifact-1",
  "contractName": "MyNFT",
  "sourceName": "contracts/MyNFT.sol",
  "abi": [
    {
      "inputs": [],
      "stateMutability": "nonpayable",
      "type": "constructor"
    },
    {
      "anonymous": false,
      "inputs": [
        {
          "indexed": true,
          "internalType": "address",
          "name": "owner",
          "type": "address"
        },
        {
          "indexed": true,
          "internalType": "address",
          "name": "approved",
          "type": "address"
        },
        {
          "indexed": true,
          "internalType": "uint256",
          "name": "tokenId",
          "type": "uint256"
        }
      ],
      "name": "Approval",
      "type": "event"
    },
    {
      "anonymous": false,
      "inputs": [
        {
          "indexed": true,
          "internalType": "address",
          "name": "owner",
          "type": "address"
        },
        {
          "indexed": true,
          "internalType": "address",
          "name": "operator",
          "type": "address"
        },
        {
          "indexed": false,
          "internalType": "bool",
          "name": "approved",
          "type": "bool"
        }
      ],
      "name": "ApprovalForAll",
      "type": "event"
    },
    {
      "anonymous": false,
      "inputs": [
        {
          "indexed": true,
          "internalType": "address",
          "name": "from",
          "type": "address"
        },
        {
          "indexed": true,
          "internalType": "address",
          "name": "to",
          "type": "address"
        },
        {
          "indexed": true,
          "internalType": "uint256",
          "name": "tokenId",
          "type": "uint256"
        }
      ],
      "name": "Transfer",
      "type": "event"
    },
    {
      "anonymous": false,
      "inputs": [
        {
          "indexed": false,
          "internalType": "address",
          "name": "from",
          "type": "address"
        },
        {
          "indexed": false,
          "internalType": "address",
          "name": "to",
          "type": "address"
        },
        {
          "indexed": false,
          "internalType": "uint256",
          "name": "tokenId",
          "type": "uint256"
        }
      ],
      "name": "confirmTransferNFT",
      "type": "event"
    },
    {
      "inputs": [
        {
          "internalType": "address",
          "name": "from",
          "type": "address"
        },
        {
          "internalType": "address",
          "name": "to",
          "type": "address"
        },
        {
          "internalType": "uint256",
          "name": "tokenId",
          "type": "uint256"
        }
      ],
      "name": "TransferNFT",
      "outputs": [
        {
          "internalType": "string",
          "name": "",
          "type": "string"
        }
      ],
      "stateMutability": "nonpayable",
      "type": "function"
    },
    {
      "inputs": [
        {
          "internalType": "address",
          "name": "to",
          "type": "address"
        },
        {
          "internalType": "uint256",
          "name": "tokenId",
          "type": "uint256"
        }
      ],
      "name": "approve",
      "outputs": [],
      "stateMutability": "nonpayable",
      "type": "function"
    },
    {
      "inputs": [
        {
          "internalType": "address",
          "name": "owner",
          "type": "address"
        }
      ],
      "name": "balanceOf",
      "outputs": [
        {
          "internalType": "uint256",
          "name": "",
          "type": "uint256"
        }
      ],
      "stateMutability": "view",
      "type": "function"
    },
    {
      "inputs": [
        {
          "internalType": "uint256",
          "name": "tokenId",
          "type": "uint256"
        }
      ],
      "name": "getApproved",
      "outputs": [
        {
          "internalType": "address",
          "name": "",
          "type": "address"
        }
      ],
      "stateMutability": "view",
      "type": "function"
    },
    {
      "inputs": [
        {
          "internalType": "address",
          "name": "owner",
          "type": "address"
        },
        {
          "internalType": "address",
          "name": "operator",
          "type": "address"
        }
      ],
      "name": "isApprovedForAll",
      "outputs": [
        {
          "internalType": "bool",
          "name": "",
          "type": "bool"
        }
      ],
      "stateMutability": "view",
      "type": "function"
    },
    {
      "inputs": [
        {
          "internalType": "address",
          "name": "to",
          "type": "address"
        },
        {
          "internalType": "string",
          "name": "uri",
          "type": "string"
        }
      ],
      "name": "mintNFT",
      "outputs": [],
      "stateMutability": "nonpayable",
      "type": "function"
    },
    {
      "inputs": [],
      "name": "name",
      "outputs": [
        {
          "internalType": "string",
          "name": "",
          "type": "string"
        }
      ],
      "stateMutability": "view",
      "type": "function"
    },
    {
      "inputs": [
        {
          "internalType": "uint256",
          "name": "tokenId",
          "type": "uint256"
        }
      ],
      "name": "ownerOf",
      "outputs": [
        {
          "internalType": "address",
          "name": "",
          "type": "address"
        }
      ],
      "stateMutability": "view",
      "type": "function"
    },
    {
      "inputs": [
        {
          "internalType": "address",
          "name": "from",
          "type": "address"
        },
        {
          "internalType": "address",
          "name": "to",
          "type": "address"
        },
        {
          "internalType": "uint256",
          "name": "tokenId",
          "type": "uint256"
        }
      ],
      "name": "safeTransferFrom",
      "outputs": [],
      "stateMutability": "nonpayable",
      "type": "function"
    },
    {
      "inputs": [
        {
          "internalType": "address",
          "name": "from",
          "type": "address"
        },
        {
          "internalType": "address",
          "name": "to",
          "type": "address"
        },
        {
          "internalType": "uint256",
          "name": "tokenId",
          "type": "uint256"
        },
        {
          "internalType": "bytes",
          "name": "data",
          "type": "bytes"
        }
      ],
      "name": "safeTransferFrom",
      "outputs": [],
      "stateMutability": "nonpayable",
      "type": "function"
    },
    {
      "inputs": [
        {
          "internalType": "address",
          "name": "operator",
          "type": "address"
        },
        {
          "internalType": "bool",
          "name": "approved",
          "type": "bool"
        }
      ],
      "name": "setApprovalForAll",
      "outputs": [],
      "stateMutability": "nonpayable",
      "type": "function"
    },
    {
      "inputs": [
        {
          "internalType": "bytes4",
          "name": "interfaceId",
          "type": "bytes4"
        }
      ],
      "name": "supportsInterface",
      "outputs": [
        {
          "internalType": "bool",
          "name": "",
          "type": "bool"
        }
      ],
      "stateMutability": "view",
      "type": "function"
    },
    {
      "inputs": [],
      "name": "symbol",
      "outputs": [
        {
          "internalType": "string",
          "name": "",
          "type": "string"
        }
      ],
      "stateMutability": "view",
      "type": "function"
    },
    {
      "inputs": [
        {
          "internalType": "uint256",
          "name": "tokenId",
          "type": "uint256"
        }
      ],
      "name": "tokenURI",
      "outputs": [
        {
          "internalType": "string",
          "name": "",
          "type": "string"
        }
      ],
      "stateMutability": "view",
      "type": "function"
    },
    {
      "inputs": [
        {
          "internalType": "address",
          "name": "from",
          "type": "address"
        },
        {
          "internalType": "address",
          "name": "to",
          "type": "address"
        },
        {
          "internalType": "uint256",
          "name": "tokenId",
          "type": "uint256"
        }
      ],
      "name": "transferFrom",
      "outputs": [],
      "stateMutability": "nonpayable",
      "type": "function"
    }
  ],
  "bytecode": "0x60806040523480156200001157600080fd5b506040518060400160405280600581526020017f4d794e46540000000000000000000000000000000000000000000000000000008152506040518060400160405280600381526020017f4e46540000000000000000000000000000000000000000000000000000000000815250816000908051906020019062000096929190620000b8565b508060019080519060200190620000af929190620000b8565b505050620001cd565b828054620000c69062000168565b90600052602060002090601f016020900481019282620000ea576000855562000136565b82601f106200010557805160ff191683800117855562000136565b8280016001018555821562000136579182015b828111156200013557825182559160200191906001019062000118565b5b50905062000145919062000149565b5090565b5b80821115620001645760008160009055506001016200014a565b5090565b600060028204905060018216806200018157607f821691505b602082108114156200019857620001976200019e565b5b50919050565b7f4e487b7100000000000000000000000000000000000000000000000000000000600052602260045260246000fd5b6129e080620001dd6000396000f3fe608060405234801561001057600080fd5b50600436106100f55760003560e01c806370a0823111610097578063b88d4fde11610066578063b88d4fde14610296578063c87b56dd146102b2578063e985e9c5146102e2578063eacabe1414610312576100f5565b806370a08231146101fc57806395d89b411461022c578063a22cb4651461024a578063a64cdec014610266576100f5565b8063095ea7b3116100d3578063095ea7b31461017857806323b872dd1461019457806342842e0e146101b05780636352211e146101cc576100f5565b806301ffc9a7146100fa57806306fdde031461012a578063081812fc14610148575b600080fd5b610114600480360381019061010f9190611cc4565b61032e565b6040516101219190612075565b60405180910390f35b610132610410565b60405161013f9190612090565b60405180910390f35b610162600480360381019061015d9190611d16565b6104a2565b60405161016f9190611fd7565b60405180910390f35b610192600480360381019061018d9190611c88565b6104e8565b005b6101ae60048036038101906101a99190611b2e565b610600565b005b6101ca60048036038101906101c59190611b2e565b610660565b005b6101e660048036038101906101e19190611d16565b610680565b6040516101f39190611fd7565b60405180910390f35b61021660048036038101906102119190611ac9565b610732565b6040516102239190612232565b60405180910390f35b6102346107ea565b6040516102419190612090565b60405180910390f35b610264600480360381019061025f9190611bf8565b61087c565b005b610280600480360381019061027b9190611b2e565b610892565b60405161028d9190612090565b60405180910390f35b6102b060048036038101906102ab9190611b7d565b61091f565b005b6102cc60048036038101906102c79190611d16565b610981565b6040516102d99190612090565b60405180910390f35b6102fc60048036038101906102f79190611af2565b610993565b6040516103099190612075565b60405180910390f35b61032c60048036038101906103279190611c34565b610a27565b005b60007f80ac58cd000000000000000000000000000000000000000000000000000000007bffffffffffffffffffffffffffffffffffffffffffffffffffffffff1916827bffffffffffffffffffffffffffffffffffffffffffffffffffffffff191614806103f957507f5b5e139f000000000000000000000000000000000000000000000000000000007bffffffffffffffffffffffffffffffffffffffffffffffffffffffff1916827bffffffffffffffffffffffffffffffffffffffffffffffffffffffff1916145b80610409575061040882610a58565b5b9050919050565b60606000805461041f90612488565b80601f016020809104026020016040519081016040528092919081815260200182805461044b90612488565b80156104985780601f1061046d57610100808354040283529160200191610498565b820191906000526020600020905b81548152906001019060200180831161047b57829003601f168201915b5050505050905090565b60006104ad82610ac2565b6004600083815260200190815260200160002060009054906101000a900473ffffffffffffffffffffffffffffffffffffffff169050919050565b60006104f382610680565b90508073ffffffffffffffffffffffffffffffffffffffff168373ffffffffffffffffffffffffffffffffffffffff161415610564576040517f08c379a000000000000000000000000000000000000000000000000000000000815260040161055b906121f2565b60405180910390fd5b8073ffffffffffffffffffffffffffffffffffffffff16610583610b0d565b73ffffffffffffffffffffffffffffffffffffffff1614806105b257506105b1816105ac610b0d565b610993565b5b6105f1576040517f08c379a00000000000000000000000000000000000000000000000000000000081526004016105e890612192565b60405180910390fd5b6105fb8383610b15565b505050565b61061161060b610b0d565b82610bce565b610650576040517f08c379a000000000000000000000000000000000000000000000000000000000815260040161064790612212565b60405180910390fd5b61065b838383610c63565b505050565b61067b8383836040518060200160405280600081525061091f565b505050565b6000806002600084815260200190815260200160002060009054906101000a900473ffffffffffffffffffffffffffffffffffffffff169050600073ffffffffffffffffffffffffffffffffffffffff168173ffffffffffffffffffffffffffffffffffffffff161415610729576040517f08c379a0000000000000000000000000000000000000000000000000000000008152600401610720906121d2565b60405180910390fd5b80915050919050565b60008073ffffffffffffffffffffffffffffffffffffffff168273ffffffffffffffffffffffffffffffffffffffff1614156107a3576040517f08c379a000000000000000000000000000000000000000000000000000000000815260040161079a90612152565b60405180910390fd5b600360008373ffffffffffffffffffffffffffffffffffffffff1673ffffffffffffffffffffffffffffffffffffffff168152602001908152602001600020549050919050565b6060600180546107f990612488565b80601f016020809104026020016040519081016040528092919081815260200182805461082590612488565b80156108725780601f1061084757610100808354040283529160200191610872565b820191906000526020600020905b81548152906001019060200180831161085557829003601f168201915b5050505050905090565b61088e610887610b0d565b8383610eca565b5050565b606061089f848484610660565b7f3182c080d2719beffcecf2f245f76057d583fb30be2f6f9576196450e87ced6e8484846040516108d293929190611ff2565b60405180910390a160006040518060400160405280600781526020017f73756363657373000000000000000000000000000000000000000000000000008152509050809150509392505050565b61093061092a610b0d565b83610bce565b61096f576040517f08c379a000000000000000000000000000000000000000000000000000000000815260040161096690612212565b60405180910390fd5b61097b84848484611037565b50505050565b606061098c82611093565b9050919050565b6000600560008473ffffffffffffffffffffffffffffffffffffffff1673ffffffffffffffffffffffffffffffffffffffff16815260200190815260200160002060008373ffffffffffffffffffffffffffffffffffffffff1673ffffffffffffffffffffffffffffffffffffffff16815260200190815260200160002060009054906101000a900460ff16905092915050565b6000610a3360076111a6565b9050610a3f60076111b4565b610a4983826111ca565b610a5381836111e8565b505050565b60007f01ffc9a7000000000000000000000000000000000000000000000000000000007bffffffffffffffffffffffffffffffffffffffffffffffffffffffff1916827bffffffffffffffffffffffffffffffffffffffffffffffffffffffff1916149050919050565b610acb8161125c565b610b0a576040517f08c379a0000000000000000000000000000000000000000000000000000000008152600401610b01906121d2565b60405180910390fd5b50565b600033905090565b816004600083815260200190815260200160002060006101000a81548173ffffffffffffffffffffffffffffffffffffffff021916908373ffffffffffffffffffffffffffffffffffffffff160217905550808273ffffffffffffffffffffffffffffffffffffffff16610b8883610680565b73ffffffffffffffffffffffffffffffffffffffff167f8c5be1e5ebec7d5bd14f71427d1e84f3dd0314c0f7b2291e5b200ac8c7c3b92560405160405180910390a45050565b600080610bda83610680565b90508073ffffffffffffffffffffffffffffffffffffffff168473ffffffffffffffffffffffffffffffffffffffff161480610c1c5750610c1b8185610993565b5b80610c5a57508373ffffffffffffffffffffffffffffffffffffffff16610c42846104a2565b73ffffffffffffffffffffffffffffffffffffffff16145b91505092915050565b8273ffffffffffffffffffffffffffffffffffffffff16610c8382610680565b73ffffffffffffffffffffffffffffffffffffffff1614610cd9576040517f08c379a0000000000000000000000000000000000000000000000000000000008152600401610cd0906120d2565b60405180910390fd5b600073ffffffffffffffffffffffffffffffffffffffff168273ffffffffffffffffffffffffffffffffffffffff161415610d49576040517f08c379a0000000000000000000000000000000000000000000000000000000008152600401610d4090612112565b60405180910390fd5b610d548383836112c8565b610d5f600082610b15565b6001600360008573ffffffffffffffffffffffffffffffffffffffff1673ffffffffffffffffffffffffffffffffffffffff1681526020019081526020016000206000828254610daf919061239e565b925050819055506001600360008473ffffffffffffffffffffffffffffffffffffffff1673ffffffffffffffffffffffffffffffffffffffff1681526020019081526020016000206000828254610e069190612317565b92505081905550816002600083815260200190815260200160002060006101000a81548173ffffffffffffffffffffffffffffffffffffffff021916908373ffffffffffffffffffffffffffffffffffffffff160217905550808273ffffffffffffffffffffffffffffffffffffffff168473ffffffffffffffffffffffffffffffffffffffff167fddf252ad1be2c89b69c2b068fc378daa952ba7f163c4a11628f55a4df523b3ef60405160405180910390a4610ec58383836112cd565b505050565b8173ffffffffffffffffffffffffffffffffffffffff168373ffffffffffffffffffffffffffffffffffffffff161415610f39576040517f08c379a0000000000000000000000000000000000000000000000000000000008152600401610f3090612132565b60405180910390fd5b80600560008573ffffffffffffffffffffffffffffffffffffffff1673ffffffffffffffffffffffffffffffffffffffff16815260200190815260200160002060008473ffffffffffffffffffffffffffffffffffffffff1673ffffffffffffffffffffffffffffffffffffffff16815260200190815260200160002060006101000a81548160ff0219169083151502179055508173ffffffffffffffffffffffffffffffffffffffff168373ffffffffffffffffffffffffffffffffffffffff167f17307eab39ab6107e8899845ad3d59bd9653f200f220920489ca2b5937696c318360405161102a9190612075565b60405180910390a3505050565b611042848484610c63565b61104e848484846112d2565b61108d576040517f08c379a0000000000000000000000000000000000000000000000000000000008152600401611084906120b2565b60405180910390fd5b50505050565b606061109e82610ac2565b60006006600084815260200190815260200160002080546110be90612488565b80601f01602080910402602001604051908101604052809291908181526020018280546110ea90612488565b80156111375780601f1061110c57610100808354040283529160200191611137565b820191906000526020600020905b81548152906001019060200180831161111a57829003601f168201915b505050505090506000611148611469565b905060008151141561115e5781925050506111a1565b60008251111561119357808260405160200161117b929190611fb3565b604051602081830303815290604052925050506111a1565b61119c84611480565b925050505b919050565b600081600001549050919050565b6001816000016000828254019250508190555050565b6111e48282604051806020016040528060008152506114e8565b5050565b6111f18261125c565b611230576040517f08c379a000000000000000000000000000000000000000000000000000000000815260040161122790612172565b60405180910390fd5b806006600084815260200190815260200160002090805190602001906112579291906118ed565b505050565b60008073ffffffffffffffffffffffffffffffffffffffff166002600084815260200190815260200160002060009054906101000a900473ffffffffffffffffffffffffffffffffffffffff1673ffffffffffffffffffffffffffffffffffffffff1614159050919050565b505050565b505050565b60006112f38473ffffffffffffffffffffffffffffffffffffffff16611543565b1561145c578373ffffffffffffffffffffffffffffffffffffffff1663150b7a0261131c610b0d565b8786866040518563ffffffff1660e01b815260040161133e9493929190612029565b602060405180830381600087803b15801561135857600080fd5b505af192505050801561138957506040513d601f19601f820116820180604052508101906113869190611ced565b60015b61140c573d80600081146113b9576040519150601f19603f3d011682016040523d82523d6000602084013e6113be565b606091505b50600081511415611404576040517f08c379a00000000000000000000000000000000000000000000000000000000081526004016113fb906120b2565b60405180910390fd5b805181602001fd5b63150b7a0260e01b7bffffffffffffffffffffffffffffffffffffffffffffffffffffffff1916817bffffffffffffffffffffffffffffffffffffffffffffffffffffffff191614915050611461565b600190505b949350505050565b606060405180602001604052806000815250905090565b606061148b82610ac2565b6000611495611469565b905060008151116114b557604051806020016040528060008152506114e0565b806114bf84611566565b6040516020016114d0929190611fb3565b6040516020818303038152906040525b915050919050565b6114f28383611713565b6114ff60008484846112d2565b61153e576040517f08c379a0000000000000000000000000000000000000000000000000000000008152600401611535906120b2565b60405180910390fd5b505050565b6000808273ffffffffffffffffffffffffffffffffffffffff163b119050919050565b606060008214156115ae576040518060400160405280600181526020017f3000000000000000000000000000000000000000000000000000000000000000815250905061170e565b600082905060005b600082146115e05780806115c9906124eb565b915050600a826115d9919061236d565b91506115b6565b60008167ffffffffffffffff811115611622577f4e487b7100000000000000000000000000000000000000000000000000000000600052604160045260246000fd5b6040519080825280601f01601f1916602001820160405280156116545781602001600182028036833780820191505090505b5090505b600085146117075760018261166d919061239e565b9150600a8561167c9190612534565b60306116889190612317565b60f81b8183815181106116c4577f4e487b7100000000000000000000000000000000000000000000000000000000600052603260045260246000fd5b60200101907effffffffffffffffffffffffffffffffffffffffffffffffffffffffffffff1916908160001a905350600a85611700919061236d565b9450611658565b8093505050505b919050565b600073ffffffffffffffffffffffffffffffffffffffff168273ffffffffffffffffffffffffffffffffffffffff161415611783576040517f08c379a000000000000000000000000000000000000000000000000000000000815260040161177a906121b2565b60405180910390fd5b61178c8161125c565b156117cc576040517f08c379a00000000000000000000000000000000000000000000000000000000081526004016117c3906120f2565b60405180910390fd5b6117d8600083836112c8565b6001600360008473ffffffffffffffffffffffffffffffffffffffff1673ffffffffffffffffffffffffffffffffffffffff16815260200190815260200160002060008282546118289190612317565b92505081905550816002600083815260200190815260200160002060006101000a81548173ffffffffffffffffffffffffffffffffffffffff021916908373ffffffffffffffffffffffffffffffffffffffff160217905550808273ffffffffffffffffffffffffffffffffffffffff16600073ffffffffffffffffffffffffffffffffffffffff167fddf252ad1be2c89b69c2b068fc378daa952ba7f163c4a11628f55a4df523b3ef60405160405180910390a46118e9600083836112cd565b5050565b8280546118f990612488565b90600052602060002090601f01602090048101928261191b5760008555611962565b82601f1061193457805160ff1916838001178555611962565b82800160010185558215611962579182015b82811115611961578251825591602001919060010190611946565b5b50905061196f9190611973565b5090565b5b8082111561198c576000816000905550600101611974565b5090565b60006119a361199e84612272565b61224d565b9050828152602081018484840111156119bb57600080fd5b6119c6848285612446565b509392505050565b60006119e16119dc846122a3565b61224d565b9050828152602081018484840111156119f957600080fd5b611a04848285612446565b509392505050565b600081359050611a1b8161294e565b92915050565b600081359050611a3081612965565b92915050565b600081359050611a458161297c565b92915050565b600081519050611a5a8161297c565b92915050565b600082601f830112611a7157600080fd5b8135611a81848260208601611990565b91505092915050565b600082601f830112611a9b57600080fd5b8135611aab8482602086016119ce565b91505092915050565b600081359050611ac381612993565b92915050565b600060208284031215611adb57600080fd5b6000611ae984828501611a0c565b91505092915050565b60008060408385031215611b0557600080fd5b6000611b1385828601611a0c565b9250506020611b2485828601611a0c565b9150509250929050565b600080600060608486031215611b4357600080fd5b6000611b5186828701611a0c565b9350506020611b6286828701611a0c565b9250506040611b7386828701611ab4565b9150509250925092565b60008060008060808587031215611b9357600080fd5b6000611ba187828801611a0c565b9450506020611bb287828801611a0c565b9350506040611bc387828801611ab4565b925050606085013567ffffffffffffffff811115611be057600080fd5b611bec87828801611a60565b91505092959194509250565b60008060408385031215611c0b57600080fd5b6000611c1985828601611a0c565b9250506020611c2a85828601611a21565b9150509250929050565b60008060408385031215611c4757600080fd5b6000611c5585828601611a0c565b925050602083013567ffffffffffffffff811115611c7257600080fd5b611c7e85828601611a8a565b9150509250929050565b60008060408385031215611c9b57600080fd5b6000611ca985828601611a0c565b9250506020611cba85828601611ab4565b9150509250929050565b600060208284031215611cd657600080fd5b6000611ce484828501611a36565b91505092915050565b600060208284031215611cff57600080fd5b6000611d0d84828501611a4b565b91505092915050565b600060208284031215611d2857600080fd5b6000611d3684828501611ab4565b91505092915050565b611d48816123d2565b82525050565b611d57816123e4565b82525050565b6000611d68826122d4565b611d7281856122ea565b9350611d82818560208601612455565b611d8b81612621565b840191505092915050565b6000611da1826122df565b611dab81856122fb565b9350611dbb818560208601612455565b611dc481612621565b840191505092915050565b6000611dda826122df565b611de4818561230c565b9350611df4818560208601612455565b80840191505092915050565b6000611e0d6032836122fb565b9150611e1882612632565b604082019050919050565b6000611e306025836122fb565b9150611e3b82612681565b604082019050919050565b6000611e53601c836122fb565b9150611e5e826126d0565b602082019050919050565b6000611e766024836122fb565b9150611e81826126f9565b604082019050919050565b6000611e996019836122fb565b9150611ea482612748565b602082019050919050565b6000611ebc6029836122fb565b9150611ec782612771565b604082019050919050565b6000611edf602e836122fb565b9150611eea826127c0565b604082019050919050565b6000611f02603e836122fb565b9150611f0d8261280f565b604082019050919050565b6000611f256020836122fb565b9150611f308261285e565b602082019050919050565b6000611f486018836122fb565b9150611f5382612887565b602082019050919050565b6000611f6b6021836122fb565b9150611f76826128b0565b604082019050919050565b6000611f8e602e836122fb565b9150611f99826128ff565b604082019050919050565b611fad8161243c565b82525050565b6000611fbf8285611dcf565b9150611fcb8284611dcf565b91508190509392505050565b6000602082019050611fec6000830184611d3f565b92915050565b60006060820190506120076000830186611d3f565b6120146020830185611d3f565b6120216040830184611fa4565b949350505050565b600060808201905061203e6000830187611d3f565b61204b6020830186611d3f565b6120586040830185611fa4565b818103606083015261206a8184611d5d565b905095945050505050565b600060208201905061208a6000830184611d4e565b92915050565b600060208201905081810360008301526120aa8184611d96565b905092915050565b600060208201905081810360008301526120cb81611e00565b9050919050565b600060208201905081810360008301526120eb81611e23565b9050919050565b6000602082019050818103600083015261210b81611e46565b9050919050565b6000602082019050818103600083015261212b81611e69565b9050919050565b6000602082019050818103600083015261214b81611e8c565b9050919050565b6000602082019050818103600083015261216b81611eaf565b9050919050565b6000602082019050818103600083015261218b81611ed2565b9050919050565b600060208201905081810360008301526121ab81611ef5565b9050919050565b600060208201905081810360008301526121cb81611f18565b9050919050565b600060208201905081810360008301526121eb81611f3b565b9050919050565b6000602082019050818103600083015261220b81611f5e565b9050919050565b6000602082019050818103600083015261222b81611f81565b9050919050565b60006020820190506122476000830184611fa4565b92915050565b6000612257612268565b905061226382826124ba565b919050565b6000604051905090565b600067ffffffffffffffff82111561228d5761228c6125f2565b5b61229682612621565b9050602081019050919050565b600067ffffffffffffffff8211156122be576122bd6125f2565b5b6122c782612621565b9050602081019050919050565b600081519050919050565b600081519050919050565b600082825260208201905092915050565b600082825260208201905092915050565b600081905092915050565b60006123228261243c565b915061232d8361243c565b9250827fffffffffffffffffffffffffffffffffffffffffffffffffffffffffffffffff0382111561236257612361612565565b5b828201905092915050565b60006123788261243c565b91506123838361243c565b92508261239357612392612594565b5b828204905092915050565b60006123a98261243c565b91506123b48361243c565b9250828210156123c7576123c6612565565b5b828203905092915050565b60006123dd8261241c565b9050919050565b60008115159050919050565b60007fffffffff0000000000000000000000000000000000000000000000000000000082169050919050565b600073ffffffffffffffffffffffffffffffffffffffff82169050919050565b6000819050919050565b82818337600083830152505050565b60005b83811015612473578082015181840152602081019050612458565b83811115612482576000848401525b50505050565b600060028204905060018216806124a057607f821691505b602082108114156124b4576124b36125c3565b5b50919050565b6124c382612621565b810181811067ffffffffffffffff821117156124e2576124e16125f2565b5b80604052505050565b60006124f68261243c565b91507fffffffffffffffffffffffffffffffffffffffffffffffffffffffffffffffff82141561252957612528612565565b5b600182019050919050565b600061253f8261243c565b915061254a8361243c565b92508261255a57612559612594565b5b828206905092915050565b7f4e487b7100000000000000000000000000000000000000000000000000000000600052601160045260246000fd5b7f4e487b7100000000000000000000000000000000000000000000000000000000600052601260045260246000fd5b7f4e487b7100000000000000000000000000000000000000000000000000000000600052602260045260246000fd5b7f4e487b7100000000000000000000000000000000000000000000000000000000600052604160045260246000fd5b6000601f19601f8301169050919050565b7f4552433732313a207472616e7366657220746f206e6f6e20455243373231526560008201527f63656976657220696d706c656d656e7465720000000000000000000000000000602082015250565b7f4552433732313a207472616e736665722066726f6d20696e636f72726563742060008201527f6f776e6572000000000000000000000000000000000000000000000000000000602082015250565b7f4552433732313a20746f6b656e20616c7265616479206d696e74656400000000600082015250565b7f4552433732313a207472616e7366657220746f20746865207a65726f2061646460008201527f7265737300000000000000000000000000000000000000000000000000000000602082015250565b7f4552433732313a20617070726f766520746f2063616c6c657200000000000000600082015250565b7f4552433732313a2061646472657373207a65726f206973206e6f74206120766160008201527f6c6964206f776e65720000000000000000000000000000000000000000000000602082015250565b7f45524337323155524953746f726167653a2055524920736574206f66206e6f6e60008201527f6578697374656e7420746f6b656e000000000000000000000000000000000000602082015250565b7f4552433732313a20617070726f76652063616c6c6572206973206e6f7420746f60008201527f6b656e206f776e6572206e6f7220617070726f76656420666f7220616c6c0000602082015250565b7f4552433732313a206d696e7420746f20746865207a65726f2061646472657373600082015250565b7f4552433732313a20696e76616c696420746f6b656e2049440000000000000000600082015250565b7f4552433732313a20617070726f76616c20746f2063757272656e74206f776e6560008201527f7200000000000000000000000000000000000000000000000000000000000000602082015250565b7f4552433732313a2063616c6c6572206973206e6f7420746f6b656e206f776e6560008201527f72206e6f7220617070726f766564000000000000000000000000000000000000602082015250565b612957816123d2565b811461296257600080fd5b50565b61296e816123e4565b811461297957600080fd5b50565b612985816123f0565b811461299057600080fd5b50565b61299c8161243c565b81146129a757600080fd5b5056fea264697066735822122039654b380cc26707c521163378e1073c1261f45ce7fc1e4efc8c5967d4ef894c64736f6c63430008040033",
  "linkReferences": {},
  "deployedLinkReferences": {}
}