{
  "_format": "hh-sol-artifact-1",
  "contractName": "MyNFT",
  "sourceName": "contracts/MyNFT.sol",
  "abi": [
    {
      "inputs": [],
      "stateMutability": "nonpayable",
      "type": "constructor"
    },
    {
      "anonymous": false,
      "inputs": [
        {
          "indexed": true,
          "internalType": "address",
          "name": "owner",
          "type": "address"
        },
        {
          "indexed": true,
          "internalType": "address",
          "name": "approved",
          "type": "address"
        },
        {
          "indexed": true,
          "internalType": "uint256",
          "name": "tokenId",
          "type": "uint256"
        }
      ],
      "name": "Approval",
      "type": "event"
    },
    {
      "anonymous": false,
      "inputs": [
        {
          "indexed": true,
          "internalType": "address",
          "name": "owner",
          "type": "address"
        },
        {
          "indexed": true,
          "internalType": "address",
          "name": "operator",
          "type": "address"
        },
        {
          "indexed": false,
          "internalType": "bool",
          "name": "approved",
          "type": "bool"
        }
      ],
      "name": "ApprovalForAll",
      "type": "event"
    },
    {
      "anonymous": false,
      "inputs": [
        {
          "indexed": true,
          "internalType": "address",
          "name": "from",
          "type": "address"
        },
        {
          "indexed": true,
          "internalType": "address",
          "name": "to",
          "type": "address"
        },
        {
          "indexed": true,
          "internalType": "uint256",
          "name": "tokenId",
          "type": "uint256"
        }
      ],
      "name": "Transfer",
      "type": "event"
    },
    {
      "inputs": [
        {
          "internalType": "address",
          "name": "to",
          "type": "address"
        },
        {
          "internalType": "uint256",
          "name": "tokenId",
          "type": "uint256"
        }
      ],
      "name": "approve",
      "outputs": [],
      "stateMutability": "nonpayable",
      "type": "function"
    },
    {
      "inputs": [
        {
          "internalType": "address",
          "name": "owner",
          "type": "address"
        }
      ],
      "name": "balanceOf",
      "outputs": [
        {
          "internalType": "uint256",
          "name": "",
          "type": "uint256"
        }
      ],
      "stateMutability": "view",
      "type": "function"
    },
    {
      "inputs": [
        {
          "internalType": "uint256",
          "name": "tokenId",
          "type": "uint256"
        }
      ],
      "name": "getApproved",
      "outputs": [
        {
          "internalType": "address",
          "name": "",
          "type": "address"
        }
      ],
      "stateMutability": "view",
      "type": "function"
    },
    {
      "inputs": [
        {
          "internalType": "address",
          "name": "owner",
          "type": "address"
        },
        {
          "internalType": "address",
          "name": "operator",
          "type": "address"
        }
      ],
      "name": "isApprovedForAll",
      "outputs": [
        {
          "internalType": "bool",
          "name": "",
          "type": "bool"
        }
      ],
      "stateMutability": "view",
      "type": "function"
    },
    {
      "inputs": [
        {
          "internalType": "address",
          "name": "to",
          "type": "address"
        },
        {
          "internalType": "string",
          "name": "uri",
          "type": "string"
        }
      ],
      "name": "mintNFT",
      "outputs": [],
      "stateMutability": "nonpayable",
      "type": "function"
    },
    {
      "inputs": [],
      "name": "name",
      "outputs": [
        {
          "internalType": "string",
          "name": "",
          "type": "string"
        }
      ],
      "stateMutability": "view",
      "type": "function"
    },
    {
      "inputs": [
        {
          "internalType": "uint256",
          "name": "tokenId",
          "type": "uint256"
        }
      ],
      "name": "ownerOf",
      "outputs": [
        {
          "internalType": "address",
          "name": "",
          "type": "address"
        }
      ],
      "stateMutability": "view",
      "type": "function"
    },
    {
      "inputs": [
        {
          "internalType": "address",
          "name": "from",
          "type": "address"
        },
        {
          "internalType": "address",
          "name": "to",
          "type": "address"
        },
        {
          "internalType": "uint256",
          "name": "tokenId",
          "type": "uint256"
        }
      ],
      "name": "safeTransferFrom",
      "outputs": [],
      "stateMutability": "nonpayable",
      "type": "function"
    },
    {
      "inputs": [
        {
          "internalType": "address",
          "name": "from",
          "type": "address"
        },
        {
          "internalType": "address",
          "name": "to",
          "type": "address"
        },
        {
          "internalType": "uint256",
          "name": "tokenId",
          "type": "uint256"
        },
        {
          "internalType": "bytes",
          "name": "data",
          "type": "bytes"
        }
      ],
      "name": "safeTransferFrom",
      "outputs": [],
      "stateMutability": "nonpayable",
      "type": "function"
    },
    {
      "inputs": [
        {
          "internalType": "address",
          "name": "operator",
          "type": "address"
        },
        {
          "internalType": "bool",
          "name": "approved",
          "type": "bool"
        }
      ],
      "name": "setApprovalForAll",
      "outputs": [],
      "stateMutability": "nonpayable",
      "type": "function"
    },
    {
      "inputs": [
        {
          "internalType": "bytes4",
          "name": "interfaceId",
          "type": "bytes4"
        }
      ],
      "name": "supportsInterface",
      "outputs": [
        {
          "internalType": "bool",
          "name": "",
          "type": "bool"
        }
      ],
      "stateMutability": "view",
      "type": "function"
    },
    {
      "inputs": [],
      "name": "symbol",
      "outputs": [
        {
          "internalType": "string",
          "name": "",
          "type": "string"
        }
      ],
      "stateMutability": "view",
      "type": "function"
    },
    {
      "inputs": [
        {
          "internalType": "uint256",
          "name": "tokenId",
          "type": "uint256"
        }
      ],
      "name": "tokenURI",
      "outputs": [
        {
          "internalType": "string",
          "name": "",
          "type": "string"
        }
      ],
      "stateMutability": "view",
      "type": "function"
    },
    {
      "inputs": [
        {
          "internalType": "address",
          "name": "from",
          "type": "address"
        },
        {
          "internalType": "address",
          "name": "to",
          "type": "address"
        },
        {
          "internalType": "uint256",
          "name": "tokenId",
          "type": "uint256"
        }
      ],
      "name": "transferFrom",
      "outputs": [],
      "stateMutability": "nonpayable",
      "type": "function"
    }
  ],
  "bytecode": "0x60806040523480156200001157600080fd5b506040518060400160405280600581526020017f4d794e46540000000000000000000000000000000000000000000000000000008152506040518060400160405280600381526020017f4e46540000000000000000000000000000000000000000000000000000000000815250816000908051906020019062000096929190620000b8565b508060019080519060200190620000af929190620000b8565b505050620001cd565b828054620000c69062000168565b90600052602060002090601f016020900481019282620000ea576000855562000136565b82601f106200010557805160ff191683800117855562000136565b8280016001018555821562000136579182015b828111156200013557825182559160200191906001019062000118565b5b50905062000145919062000149565b5090565b5b80821115620001645760008160009055506001016200014a565b5090565b600060028204905060018216806200018157607f821691505b602082108114156200019857620001976200019e565b5b50919050565b7f4e487b7100000000000000000000000000000000000000000000000000000000600052602260045260246000fd5b6128e180620001dd6000396000f3fe608060405234801561001057600080fd5b50600436106100ea5760003560e01c806370a082311161008c578063b88d4fde11610066578063b88d4fde1461025b578063c87b56dd14610277578063e985e9c5146102a7578063eacabe14146102d7576100ea565b806370a08231146101f157806395d89b4114610221578063a22cb4651461023f576100ea565b8063095ea7b3116100c8578063095ea7b31461016d57806323b872dd1461018957806342842e0e146101a55780636352211e146101c1576100ea565b806301ffc9a7146100ef57806306fdde031461011f578063081812fc1461013d575b600080fd5b61010960048036038101906101049190611bfc565b6102f3565b6040516101169190611f76565b60405180910390f35b6101276103d5565b6040516101349190611f91565b60405180910390f35b61015760048036038101906101529190611c4e565b610467565b6040516101649190611f0f565b60405180910390f35b61018760048036038101906101829190611bc0565b6104ad565b005b6101a3600480360381019061019e9190611a66565b6105c5565b005b6101bf60048036038101906101ba9190611a66565b610625565b005b6101db60048036038101906101d69190611c4e565b610645565b6040516101e89190611f0f565b60405180910390f35b61020b60048036038101906102069190611a01565b6106f7565b6040516102189190612133565b60405180910390f35b6102296107af565b6040516102369190611f91565b60405180910390f35b61025960048036038101906102549190611b30565b610841565b005b61027560048036038101906102709190611ab5565b610857565b005b610291600480360381019061028c9190611c4e565b6108b9565b60405161029e9190611f91565b60405180910390f35b6102c160048036038101906102bc9190611a2a565b6108cb565b6040516102ce9190611f76565b60405180910390f35b6102f160048036038101906102ec9190611b6c565b61095f565b005b60007f80ac58cd000000000000000000000000000000000000000000000000000000007bffffffffffffffffffffffffffffffffffffffffffffffffffffffff1916827bffffffffffffffffffffffffffffffffffffffffffffffffffffffff191614806103be57507f5b5e139f000000000000000000000000000000000000000000000000000000007bffffffffffffffffffffffffffffffffffffffffffffffffffffffff1916827bffffffffffffffffffffffffffffffffffffffffffffffffffffffff1916145b806103ce57506103cd82610990565b5b9050919050565b6060600080546103e490612389565b80601f016020809104026020016040519081016040528092919081815260200182805461041090612389565b801561045d5780601f106104325761010080835404028352916020019161045d565b820191906000526020600020905b81548152906001019060200180831161044057829003601f168201915b5050505050905090565b6000610472826109fa565b6004600083815260200190815260200160002060009054906101000a900473ffffffffffffffffffffffffffffffffffffffff169050919050565b60006104b882610645565b90508073ffffffffffffffffffffffffffffffffffffffff168373ffffffffffffffffffffffffffffffffffffffff161415610529576040517f08c379a0000000000000000000000000000000000000000000000000000000008152600401610520906120f3565b60405180910390fd5b8073ffffffffffffffffffffffffffffffffffffffff16610548610a45565b73ffffffffffffffffffffffffffffffffffffffff161480610577575061057681610571610a45565b6108cb565b5b6105b6576040517f08c379a00000000000000000000000000000000000000000000000000000000081526004016105ad90612093565b60405180910390fd5b6105c08383610a4d565b505050565b6105d66105d0610a45565b82610b06565b610615576040517f08c379a000000000000000000000000000000000000000000000000000000000815260040161060c90612113565b60405180910390fd5b610620838383610b9b565b505050565b61064083838360405180602001604052806000815250610857565b505050565b6000806002600084815260200190815260200160002060009054906101000a900473ffffffffffffffffffffffffffffffffffffffff169050600073ffffffffffffffffffffffffffffffffffffffff168173ffffffffffffffffffffffffffffffffffffffff1614156106ee576040517f08c379a00000000000000000000000000000000000000000000000000000000081526004016106e5906120d3565b60405180910390fd5b80915050919050565b60008073ffffffffffffffffffffffffffffffffffffffff168273ffffffffffffffffffffffffffffffffffffffff161415610768576040517f08c379a000000000000000000000000000000000000000000000000000000000815260040161075f90612053565b60405180910390fd5b600360008373ffffffffffffffffffffffffffffffffffffffff1673ffffffffffffffffffffffffffffffffffffffff168152602001908152602001600020549050919050565b6060600180546107be90612389565b80601f01602080910402602001604051908101604052809291908181526020018280546107ea90612389565b80156108375780601f1061080c57610100808354040283529160200191610837565b820191906000526020600020905b81548152906001019060200180831161081a57829003601f168201915b5050505050905090565b61085361084c610a45565b8383610e02565b5050565b610868610862610a45565b83610b06565b6108a7576040517f08c379a000000000000000000000000000000000000000000000000000000000815260040161089e90612113565b60405180910390fd5b6108b384848484610f6f565b50505050565b60606108c482610fcb565b9050919050565b6000600560008473ffffffffffffffffffffffffffffffffffffffff1673ffffffffffffffffffffffffffffffffffffffff16815260200190815260200160002060008373ffffffffffffffffffffffffffffffffffffffff1673ffffffffffffffffffffffffffffffffffffffff16815260200190815260200160002060009054906101000a900460ff16905092915050565b600061096b60076110de565b905061097760076110ec565b6109818382611102565b61098b8183611120565b505050565b60007f01ffc9a7000000000000000000000000000000000000000000000000000000007bffffffffffffffffffffffffffffffffffffffffffffffffffffffff1916827bffffffffffffffffffffffffffffffffffffffffffffffffffffffff1916149050919050565b610a0381611194565b610a42576040517f08c379a0000000000000000000000000000000000000000000000000000000008152600401610a39906120d3565b60405180910390fd5b50565b600033905090565b816004600083815260200190815260200160002060006101000a81548173ffffffffffffffffffffffffffffffffffffffff021916908373ffffffffffffffffffffffffffffffffffffffff160217905550808273ffffffffffffffffffffffffffffffffffffffff16610ac083610645565b73ffffffffffffffffffffffffffffffffffffffff167f8c5be1e5ebec7d5bd14f71427d1e84f3dd0314c0f7b2291e5b200ac8c7c3b92560405160405180910390a45050565b600080610b1283610645565b90508073ffffffffffffffffffffffffffffffffffffffff168473ffffffffffffffffffffffffffffffffffffffff161480610b545750610b5381856108cb565b5b80610b9257508373ffffffffffffffffffffffffffffffffffffffff16610b7a84610467565b73ffffffffffffffffffffffffffffffffffffffff16145b91505092915050565b8273ffffffffffffffffffffffffffffffffffffffff16610bbb82610645565b73ffffffffffffffffffffffffffffffffffffffff1614610c11576040517f08c379a0000000000000000000000000000000000000000000000000000000008152600401610c0890611fd3565b60405180910390fd5b600073ffffffffffffffffffffffffffffffffffffffff168273ffffffffffffffffffffffffffffffffffffffff161415610c81576040517f08c379a0000000000000000000000000000000000000000000000000000000008152600401610c7890612013565b60405180910390fd5b610c8c838383611200565b610c97600082610a4d565b6001600360008573ffffffffffffffffffffffffffffffffffffffff1673ffffffffffffffffffffffffffffffffffffffff1681526020019081526020016000206000828254610ce7919061229f565b925050819055506001600360008473ffffffffffffffffffffffffffffffffffffffff1673ffffffffffffffffffffffffffffffffffffffff1681526020019081526020016000206000828254610d3e9190612218565b92505081905550816002600083815260200190815260200160002060006101000a81548173ffffffffffffffffffffffffffffffffffffffff021916908373ffffffffffffffffffffffffffffffffffffffff160217905550808273ffffffffffffffffffffffffffffffffffffffff168473ffffffffffffffffffffffffffffffffffffffff167fddf252ad1be2c89b69c2b068fc378daa952ba7f163c4a11628f55a4df523b3ef60405160405180910390a4610dfd838383611205565b505050565b8173ffffffffffffffffffffffffffffffffffffffff168373ffffffffffffffffffffffffffffffffffffffff161415610e71576040517f08c379a0000000000000000000000000000000000000000000000000000000008152600401610e6890612033565b60405180910390fd5b80600560008573ffffffffffffffffffffffffffffffffffffffff1673ffffffffffffffffffffffffffffffffffffffff16815260200190815260200160002060008473ffffffffffffffffffffffffffffffffffffffff1673ffffffffffffffffffffffffffffffffffffffff16815260200190815260200160002060006101000a81548160ff0219169083151502179055508173ffffffffffffffffffffffffffffffffffffffff168373ffffffffffffffffffffffffffffffffffffffff167f17307eab39ab6107e8899845ad3d59bd9653f200f220920489ca2b5937696c3183604051610f629190611f76565b60405180910390a3505050565b610f7a848484610b9b565b610f868484848461120a565b610fc5576040517f08c379a0000000000000000000000000000000000000000000000000000000008152600401610fbc90611fb3565b60405180910390fd5b50505050565b6060610fd6826109fa565b6000600660008481526020019081526020016000208054610ff690612389565b80601f016020809104026020016040519081016040528092919081815260200182805461102290612389565b801561106f5780601f106110445761010080835404028352916020019161106f565b820191906000526020600020905b81548152906001019060200180831161105257829003601f168201915b5050505050905060006110806113a1565b90506000815114156110965781925050506110d9565b6000825111156110cb5780826040516020016110b3929190611eeb565b604051602081830303815290604052925050506110d9565b6110d4846113b8565b925050505b919050565b600081600001549050919050565b6001816000016000828254019250508190555050565b61111c828260405180602001604052806000815250611420565b5050565b61112982611194565b611168576040517f08c379a000000000000000000000000000000000000000000000000000000000815260040161115f90612073565b60405180910390fd5b8060066000848152602001908152602001600020908051906020019061118f929190611825565b505050565b60008073ffffffffffffffffffffffffffffffffffffffff166002600084815260200190815260200160002060009054906101000a900473ffffffffffffffffffffffffffffffffffffffff1673ffffffffffffffffffffffffffffffffffffffff1614159050919050565b505050565b505050565b600061122b8473ffffffffffffffffffffffffffffffffffffffff1661147b565b15611394578373ffffffffffffffffffffffffffffffffffffffff1663150b7a02611254610a45565b8786866040518563ffffffff1660e01b81526004016112769493929190611f2a565b602060405180830381600087803b15801561129057600080fd5b505af19250505080156112c157506040513d601f19601f820116820180604052508101906112be9190611c25565b60015b611344573d80600081146112f1576040519150601f19603f3d011682016040523d82523d6000602084013e6112f6565b606091505b5060008151141561133c576040517f08c379a000000000000000000000000000000000000000000000000000000000815260040161133390611fb3565b60405180910390fd5b805181602001fd5b63150b7a0260e01b7bffffffffffffffffffffffffffffffffffffffffffffffffffffffff1916817bffffffffffffffffffffffffffffffffffffffffffffffffffffffff191614915050611399565b600190505b949350505050565b606060405180602001604052806000815250905090565b60606113c3826109fa565b60006113cd6113a1565b905060008151116113ed5760405180602001604052806000815250611418565b806113f78461149e565b604051602001611408929190611eeb565b6040516020818303038152906040525b915050919050565b61142a838361164b565b611437600084848461120a565b611476576040517f08c379a000000000000000000000000000000000000000000000000000000000815260040161146d90611fb3565b60405180910390fd5b505050565b6000808273ffffffffffffffffffffffffffffffffffffffff163b119050919050565b606060008214156114e6576040518060400160405280600181526020017f30000000000000000000000000000000000000000000000000000000000000008152509050611646565b600082905060005b60008214611518578080611501906123ec565b915050600a82611511919061226e565b91506114ee565b60008167ffffffffffffffff81111561155a577f4e487b7100000000000000000000000000000000000000000000000000000000600052604160045260246000fd5b6040519080825280601f01601f19166020018201604052801561158c5781602001600182028036833780820191505090505b5090505b6000851461163f576001826115a5919061229f565b9150600a856115b49190612435565b60306115c09190612218565b60f81b8183815181106115fc577f4e487b7100000000000000000000000000000000000000000000000000000000600052603260045260246000fd5b60200101907effffffffffffffffffffffffffffffffffffffffffffffffffffffffffffff1916908160001a905350600a85611638919061226e565b9450611590565b8093505050505b919050565b600073ffffffffffffffffffffffffffffffffffffffff168273ffffffffffffffffffffffffffffffffffffffff1614156116bb576040517f08c379a00000000000000000000000000000000000000000000000000000000081526004016116b2906120b3565b60405180910390fd5b6116c481611194565b15611704576040517f08c379a00000000000000000000000000000000000000000000000000000000081526004016116fb90611ff3565b60405180910390fd5b61171060008383611200565b6001600360008473ffffffffffffffffffffffffffffffffffffffff1673ffffffffffffffffffffffffffffffffffffffff16815260200190815260200160002060008282546117609190612218565b92505081905550816002600083815260200190815260200160002060006101000a81548173ffffffffffffffffffffffffffffffffffffffff021916908373ffffffffffffffffffffffffffffffffffffffff160217905550808273ffffffffffffffffffffffffffffffffffffffff16600073ffffffffffffffffffffffffffffffffffffffff167fddf252ad1be2c89b69c2b068fc378daa952ba7f163c4a11628f55a4df523b3ef60405160405180910390a461182160008383611205565b5050565b82805461183190612389565b90600052602060002090601f016020900481019282611853576000855561189a565b82601f1061186c57805160ff191683800117855561189a565b8280016001018555821561189a579182015b8281111561189957825182559160200191906001019061187e565b5b5090506118a791906118ab565b5090565b5b808211156118c45760008160009055506001016118ac565b5090565b60006118db6118d684612173565b61214e565b9050828152602081018484840111156118f357600080fd5b6118fe848285612347565b509392505050565b6000611919611914846121a4565b61214e565b90508281526020810184848401111561193157600080fd5b61193c848285612347565b509392505050565b6000813590506119538161284f565b92915050565b60008135905061196881612866565b92915050565b60008135905061197d8161287d565b92915050565b6000815190506119928161287d565b92915050565b600082601f8301126119a957600080fd5b81356119b98482602086016118c8565b91505092915050565b600082601f8301126119d357600080fd5b81356119e3848260208601611906565b91505092915050565b6000813590506119fb81612894565b92915050565b600060208284031215611a1357600080fd5b6000611a2184828501611944565b91505092915050565b60008060408385031215611a3d57600080fd5b6000611a4b85828601611944565b9250506020611a5c85828601611944565b9150509250929050565b600080600060608486031215611a7b57600080fd5b6000611a8986828701611944565b9350506020611a9a86828701611944565b9250506040611aab868287016119ec565b9150509250925092565b60008060008060808587031215611acb57600080fd5b6000611ad987828801611944565b9450506020611aea87828801611944565b9350506040611afb878288016119ec565b925050606085013567ffffffffffffffff811115611b1857600080fd5b611b2487828801611998565b91505092959194509250565b60008060408385031215611b4357600080fd5b6000611b5185828601611944565b9250506020611b6285828601611959565b9150509250929050565b60008060408385031215611b7f57600080fd5b6000611b8d85828601611944565b925050602083013567ffffffffffffffff811115611baa57600080fd5b611bb6858286016119c2565b9150509250929050565b60008060408385031215611bd357600080fd5b6000611be185828601611944565b9250506020611bf2858286016119ec565b9150509250929050565b600060208284031215611c0e57600080fd5b6000611c1c8482850161196e565b91505092915050565b600060208284031215611c3757600080fd5b6000611c4584828501611983565b91505092915050565b600060208284031215611c6057600080fd5b6000611c6e848285016119ec565b91505092915050565b611c80816122d3565b82525050565b611c8f816122e5565b82525050565b6000611ca0826121d5565b611caa81856121eb565b9350611cba818560208601612356565b611cc381612522565b840191505092915050565b6000611cd9826121e0565b611ce381856121fc565b9350611cf3818560208601612356565b611cfc81612522565b840191505092915050565b6000611d12826121e0565b611d1c818561220d565b9350611d2c818560208601612356565b80840191505092915050565b6000611d456032836121fc565b9150611d5082612533565b604082019050919050565b6000611d686025836121fc565b9150611d7382612582565b604082019050919050565b6000611d8b601c836121fc565b9150611d96826125d1565b602082019050919050565b6000611dae6024836121fc565b9150611db9826125fa565b604082019050919050565b6000611dd16019836121fc565b9150611ddc82612649565b602082019050919050565b6000611df46029836121fc565b9150611dff82612672565b604082019050919050565b6000611e17602e836121fc565b9150611e22826126c1565b604082019050919050565b6000611e3a603e836121fc565b9150611e4582612710565b604082019050919050565b6000611e5d6020836121fc565b9150611e688261275f565b602082019050919050565b6000611e806018836121fc565b9150611e8b82612788565b602082019050919050565b6000611ea36021836121fc565b9150611eae826127b1565b604082019050919050565b6000611ec6602e836121fc565b9150611ed182612800565b604082019050919050565b611ee58161233d565b82525050565b6000611ef78285611d07565b9150611f038284611d07565b91508190509392505050565b6000602082019050611f246000830184611c77565b92915050565b6000608082019050611f3f6000830187611c77565b611f4c6020830186611c77565b611f596040830185611edc565b8181036060830152611f6b8184611c95565b905095945050505050565b6000602082019050611f8b6000830184611c86565b92915050565b60006020820190508181036000830152611fab8184611cce565b905092915050565b60006020820190508181036000830152611fcc81611d38565b9050919050565b60006020820190508181036000830152611fec81611d5b565b9050919050565b6000602082019050818103600083015261200c81611d7e565b9050919050565b6000602082019050818103600083015261202c81611da1565b9050919050565b6000602082019050818103600083015261204c81611dc4565b9050919050565b6000602082019050818103600083015261206c81611de7565b9050919050565b6000602082019050818103600083015261208c81611e0a565b9050919050565b600060208201905081810360008301526120ac81611e2d565b9050919050565b600060208201905081810360008301526120cc81611e50565b9050919050565b600060208201905081810360008301526120ec81611e73565b9050919050565b6000602082019050818103600083015261210c81611e96565b9050919050565b6000602082019050818103600083015261212c81611eb9565b9050919050565b60006020820190506121486000830184611edc565b92915050565b6000612158612169565b905061216482826123bb565b919050565b6000604051905090565b600067ffffffffffffffff82111561218e5761218d6124f3565b5b61219782612522565b9050602081019050919050565b600067ffffffffffffffff8211156121bf576121be6124f3565b5b6121c882612522565b9050602081019050919050565b600081519050919050565b600081519050919050565b600082825260208201905092915050565b600082825260208201905092915050565b600081905092915050565b60006122238261233d565b915061222e8361233d565b9250827fffffffffffffffffffffffffffffffffffffffffffffffffffffffffffffffff0382111561226357612262612466565b5b828201905092915050565b60006122798261233d565b91506122848361233d565b92508261229457612293612495565b5b828204905092915050565b60006122aa8261233d565b91506122b58361233d565b9250828210156122c8576122c7612466565b5b828203905092915050565b60006122de8261231d565b9050919050565b60008115159050919050565b60007fffffffff0000000000000000000000000000000000000000000000000000000082169050919050565b600073ffffffffffffffffffffffffffffffffffffffff82169050919050565b6000819050919050565b82818337600083830152505050565b60005b83811015612374578082015181840152602081019050612359565b83811115612383576000848401525b50505050565b600060028204905060018216806123a157607f821691505b602082108114156123b5576123b46124c4565b5b50919050565b6123c482612522565b810181811067ffffffffffffffff821117156123e3576123e26124f3565b5b80604052505050565b60006123f78261233d565b91507fffffffffffffffffffffffffffffffffffffffffffffffffffffffffffffffff82141561242a57612429612466565b5b600182019050919050565b60006124408261233d565b915061244b8361233d565b92508261245b5761245a612495565b5b828206905092915050565b7f4e487b7100000000000000000000000000000000000000000000000000000000600052601160045260246000fd5b7f4e487b7100000000000000000000000000000000000000000000000000000000600052601260045260246000fd5b7f4e487b7100000000000000000000000000000000000000000000000000000000600052602260045260246000fd5b7f4e487b7100000000000000000000000000000000000000000000000000000000600052604160045260246000fd5b6000601f19601f8301169050919050565b7f4552433732313a207472616e7366657220746f206e6f6e20455243373231526560008201527f63656976657220696d706c656d656e7465720000000000000000000000000000602082015250565b7f4552433732313a207472616e736665722066726f6d20696e636f72726563742060008201527f6f776e6572000000000000000000000000000000000000000000000000000000602082015250565b7f4552433732313a20746f6b656e20616c7265616479206d696e74656400000000600082015250565b7f4552433732313a207472616e7366657220746f20746865207a65726f2061646460008201527f7265737300000000000000000000000000000000000000000000000000000000602082015250565b7f4552433732313a20617070726f766520746f2063616c6c657200000000000000600082015250565b7f4552433732313a2061646472657373207a65726f206973206e6f74206120766160008201527f6c6964206f776e65720000000000000000000000000000000000000000000000602082015250565b7f45524337323155524953746f726167653a2055524920736574206f66206e6f6e60008201527f6578697374656e7420746f6b656e000000000000000000000000000000000000602082015250565b7f4552433732313a20617070726f76652063616c6c6572206973206e6f7420746f60008201527f6b656e206f776e6572206e6f7220617070726f76656420666f7220616c6c0000602082015250565b7f4552433732313a206d696e7420746f20746865207a65726f2061646472657373600082015250565b7f4552433732313a20696e76616c696420746f6b656e2049440000000000000000600082015250565b7f4552433732313a20617070726f76616c20746f2063757272656e74206f776e6560008201527f7200000000000000000000000000000000000000000000000000000000000000602082015250565b7f4552433732313a2063616c6c6572206973206e6f7420746f6b656e206f776e6560008201527f72206e6f7220617070726f766564000000000000000000000000000000000000602082015250565b612858816122d3565b811461286357600080fd5b50565b61286f816122e5565b811461287a57600080fd5b50565b612886816122f1565b811461289157600080fd5b50565b61289d8161233d565b81146128a857600080fd5b5056fea264697066735822122038277677655fc1be1f4c06e184a444d791a1853caa45f8b13195aa1c6d90c7c164736f6c63430008040033",
  "linkReferences": {},
  "deployedLinkReferences": {}
}