{
  "_format": "hh-sol-artifact-1",
  "contractName": "MyNFT",
  "sourceName": "contracts/MyNFT.sol",
  "abi": [
    {
      "inputs": [],
      "stateMutability": "nonpayable",
      "type": "constructor"
    },
    {
      "anonymous": false,
      "inputs": [
        {
          "indexed": true,
          "internalType": "address",
          "name": "owner",
          "type": "address"
        },
        {
          "indexed": true,
          "internalType": "address",
          "name": "approved",
          "type": "address"
        },
        {
          "indexed": true,
          "internalType": "uint256",
          "name": "tokenId",
          "type": "uint256"
        }
      ],
      "name": "Approval",
      "type": "event"
    },
    {
      "anonymous": false,
      "inputs": [
        {
          "indexed": true,
          "internalType": "address",
          "name": "owner",
          "type": "address"
        },
        {
          "indexed": true,
          "internalType": "address",
          "name": "operator",
          "type": "address"
        },
        {
          "indexed": false,
          "internalType": "bool",
          "name": "approved",
          "type": "bool"
        }
      ],
      "name": "ApprovalForAll",
      "type": "event"
    },
    {
      "anonymous": false,
      "inputs": [
        {
          "indexed": true,
          "internalType": "address",
          "name": "from",
          "type": "address"
        },
        {
          "indexed": true,
          "internalType": "address",
          "name": "to",
          "type": "address"
        },
        {
          "indexed": true,
          "internalType": "uint256",
          "name": "tokenId",
          "type": "uint256"
        }
      ],
      "name": "Transfer",
      "type": "event"
    },
    {
      "inputs": [
        {
          "internalType": "address",
          "name": "from",
          "type": "address"
        },
        {
          "internalType": "address",
          "name": "to",
          "type": "address"
        },
        {
          "internalType": "uint256",
          "name": "tokenId",
          "type": "uint256"
        }
      ],
      "name": "TransferNFT",
      "outputs": [
        {
          "internalType": "string",
          "name": "",
          "type": "string"
        }
      ],
      "stateMutability": "nonpayable",
      "type": "function"
    },
    {
      "inputs": [
        {
          "internalType": "address",
          "name": "to",
          "type": "address"
        },
        {
          "internalType": "uint256",
          "name": "tokenId",
          "type": "uint256"
        }
      ],
      "name": "approve",
      "outputs": [],
      "stateMutability": "nonpayable",
      "type": "function"
    },
    {
      "inputs": [
        {
          "internalType": "address",
          "name": "owner",
          "type": "address"
        }
      ],
      "name": "balanceOf",
      "outputs": [
        {
          "internalType": "uint256",
          "name": "",
          "type": "uint256"
        }
      ],
      "stateMutability": "view",
      "type": "function"
    },
    {
      "inputs": [
        {
          "internalType": "uint256",
          "name": "tokenId",
          "type": "uint256"
        }
      ],
      "name": "getApproved",
      "outputs": [
        {
          "internalType": "address",
          "name": "",
          "type": "address"
        }
      ],
      "stateMutability": "view",
      "type": "function"
    },
    {
      "inputs": [
        {
          "internalType": "address",
          "name": "owner",
          "type": "address"
        },
        {
          "internalType": "address",
          "name": "operator",
          "type": "address"
        }
      ],
      "name": "isApprovedForAll",
      "outputs": [
        {
          "internalType": "bool",
          "name": "",
          "type": "bool"
        }
      ],
      "stateMutability": "view",
      "type": "function"
    },
    {
      "inputs": [],
      "name": "latest_tokenId",
      "outputs": [
        {
          "internalType": "uint256",
          "name": "",
          "type": "uint256"
        }
      ],
      "stateMutability": "view",
      "type": "function"
    },
    {
      "inputs": [
        {
          "internalType": "address",
          "name": "to",
          "type": "address"
        },
        {
          "internalType": "string",
          "name": "uri",
          "type": "string"
        }
      ],
      "name": "mintNFT",
      "outputs": [],
      "stateMutability": "nonpayable",
      "type": "function"
    },
    {
      "inputs": [],
      "name": "name",
      "outputs": [
        {
          "internalType": "string",
          "name": "",
          "type": "string"
        }
      ],
      "stateMutability": "view",
      "type": "function"
    },
    {
      "inputs": [
        {
          "internalType": "uint256",
          "name": "tokenId",
          "type": "uint256"
        }
      ],
      "name": "ownerOf",
      "outputs": [
        {
          "internalType": "address",
          "name": "",
          "type": "address"
        }
      ],
      "stateMutability": "view",
      "type": "function"
    },
    {
      "inputs": [
        {
          "internalType": "address",
          "name": "from",
          "type": "address"
        },
        {
          "internalType": "address",
          "name": "to",
          "type": "address"
        },
        {
          "internalType": "uint256",
          "name": "tokenId",
          "type": "uint256"
        }
      ],
      "name": "safeTransferFrom",
      "outputs": [],
      "stateMutability": "nonpayable",
      "type": "function"
    },
    {
      "inputs": [
        {
          "internalType": "address",
          "name": "from",
          "type": "address"
        },
        {
          "internalType": "address",
          "name": "to",
          "type": "address"
        },
        {
          "internalType": "uint256",
          "name": "tokenId",
          "type": "uint256"
        },
        {
          "internalType": "bytes",
          "name": "data",
          "type": "bytes"
        }
      ],
      "name": "safeTransferFrom",
      "outputs": [],
      "stateMutability": "nonpayable",
      "type": "function"
    },
    {
      "inputs": [
        {
          "internalType": "address",
          "name": "operator",
          "type": "address"
        },
        {
          "internalType": "bool",
          "name": "approved",
          "type": "bool"
        }
      ],
      "name": "setApprovalForAll",
      "outputs": [],
      "stateMutability": "nonpayable",
      "type": "function"
    },
    {
      "inputs": [
        {
          "internalType": "bytes4",
          "name": "interfaceId",
          "type": "bytes4"
        }
      ],
      "name": "supportsInterface",
      "outputs": [
        {
          "internalType": "bool",
          "name": "",
          "type": "bool"
        }
      ],
      "stateMutability": "view",
      "type": "function"
    },
    {
      "inputs": [],
      "name": "symbol",
      "outputs": [
        {
          "internalType": "string",
          "name": "",
          "type": "string"
        }
      ],
      "stateMutability": "view",
      "type": "function"
    },
    {
      "inputs": [
        {
          "internalType": "uint256",
          "name": "tokenId",
          "type": "uint256"
        }
      ],
      "name": "tokenURI",
      "outputs": [
        {
          "internalType": "string",
          "name": "",
          "type": "string"
        }
      ],
      "stateMutability": "view",
      "type": "function"
    },
    {
      "inputs": [
        {
          "internalType": "address",
          "name": "from",
          "type": "address"
        },
        {
          "internalType": "address",
          "name": "to",
          "type": "address"
        },
        {
          "internalType": "uint256",
          "name": "tokenId",
          "type": "uint256"
        }
      ],
      "name": "transferFrom",
      "outputs": [],
      "stateMutability": "nonpayable",
      "type": "function"
    }
  ],
  "bytecode": "0x60806040523480156200001157600080fd5b506040518060400160405280600581526020017f4d794e46540000000000000000000000000000000000000000000000000000008152506040518060400160405280600381526020017f4e46540000000000000000000000000000000000000000000000000000000000815250816000908051906020019062000096929190620000b8565b508060019080519060200190620000af929190620000b8565b505050620001cd565b828054620000c69062000168565b90600052602060002090601f016020900481019282620000ea576000855562000136565b82601f106200010557805160ff191683800117855562000136565b8280016001018555821562000136579182015b828111156200013557825182559160200191906001019062000118565b5b50905062000145919062000149565b5090565b5b80821115620001645760008160009055506001016200014a565b5090565b600060028204905060018216806200018157607f821691505b602082108114156200019857620001976200019e565b5b50919050565b7f4e487b7100000000000000000000000000000000000000000000000000000000600052602260045260246000fd5b6129ad80620001dd6000396000f3fe608060405234801561001057600080fd5b50600436106101005760003560e01c806370a0823111610097578063b88d4fde11610066578063b88d4fde146102bf578063c87b56dd146102db578063e985e9c51461030b578063eacabe141461033b57610100565b806370a082311461022557806395d89b4114610255578063a22cb46514610273578063a64cdec01461028f57610100565b806323b872dd116100d357806323b872dd1461019f57806326b3314f146101bb57806342842e0e146101d95780636352211e146101f557610100565b806301ffc9a71461010557806306fdde0314610135578063081812fc14610153578063095ea7b314610183575b600080fd5b61011f600480360381019061011a9190611cc8565b610357565b60405161012c9190612042565b60405180910390f35b61013d610439565b60405161014a919061205d565b60405180910390f35b61016d60048036038101906101689190611d1a565b6104cb565b60405161017a9190611fdb565b60405180910390f35b61019d60048036038101906101989190611c8c565b610511565b005b6101b960048036038101906101b49190611b32565b610629565b005b6101c3610689565b6040516101d091906121ff565b60405180910390f35b6101f360048036038101906101ee9190611b32565b61069f565b005b61020f600480360381019061020a9190611d1a565b6106bf565b60405161021c9190611fdb565b60405180910390f35b61023f600480360381019061023a9190611acd565b610771565b60405161024c91906121ff565b60405180910390f35b61025d610829565b60405161026a919061205d565b60405180910390f35b61028d60048036038101906102889190611bfc565b6108bb565b005b6102a960048036038101906102a49190611b32565b6108d1565b6040516102b6919061205d565b60405180910390f35b6102d960048036038101906102d49190611b81565b610923565b005b6102f560048036038101906102f09190611d1a565b610985565b604051610302919061205d565b60405180910390f35b61032560048036038101906103209190611af6565b610997565b6040516103329190612042565b60405180910390f35b61035560048036038101906103509190611c38565b610a2b565b005b60007f80ac58cd000000000000000000000000000000000000000000000000000000007bffffffffffffffffffffffffffffffffffffffffffffffffffffffff1916827bffffffffffffffffffffffffffffffffffffffffffffffffffffffff1916148061042257507f5b5e139f000000000000000000000000000000000000000000000000000000007bffffffffffffffffffffffffffffffffffffffffffffffffffffffff1916827bffffffffffffffffffffffffffffffffffffffffffffffffffffffff1916145b80610432575061043182610a5c565b5b9050919050565b60606000805461044890612455565b80601f016020809104026020016040519081016040528092919081815260200182805461047490612455565b80156104c15780601f10610496576101008083540402835291602001916104c1565b820191906000526020600020905b8154815290600101906020018083116104a457829003601f168201915b5050505050905090565b60006104d682610ac6565b6004600083815260200190815260200160002060009054906101000a900473ffffffffffffffffffffffffffffffffffffffff169050919050565b600061051c826106bf565b90508073ffffffffffffffffffffffffffffffffffffffff168373ffffffffffffffffffffffffffffffffffffffff16141561058d576040517f08c379a0000000000000000000000000000000000000000000000000000000008152600401610584906121bf565b60405180910390fd5b8073ffffffffffffffffffffffffffffffffffffffff166105ac610b11565b73ffffffffffffffffffffffffffffffffffffffff1614806105db57506105da816105d5610b11565b610997565b5b61061a576040517f08c379a00000000000000000000000000000000000000000000000000000000081526004016106119061215f565b60405180910390fd5b6106248383610b19565b505050565b61063a610634610b11565b82610bd2565b610679576040517f08c379a0000000000000000000000000000000000000000000000000000000008152600401610670906121df565b60405180910390fd5b610684838383610c67565b505050565b6000806106966007610ece565b90508091505090565b6106ba83838360405180602001604052806000815250610923565b505050565b6000806002600084815260200190815260200160002060009054906101000a900473ffffffffffffffffffffffffffffffffffffffff169050600073ffffffffffffffffffffffffffffffffffffffff168173ffffffffffffffffffffffffffffffffffffffff161415610768576040517f08c379a000000000000000000000000000000000000000000000000000000000815260040161075f9061219f565b60405180910390fd5b80915050919050565b60008073ffffffffffffffffffffffffffffffffffffffff168273ffffffffffffffffffffffffffffffffffffffff1614156107e2576040517f08c379a00000000000000000000000000000000000000000000000000000000081526004016107d99061211f565b60405180910390fd5b600360008373ffffffffffffffffffffffffffffffffffffffff1673ffffffffffffffffffffffffffffffffffffffff168152602001908152602001600020549050919050565b60606001805461083890612455565b80601f016020809104026020016040519081016040528092919081815260200182805461086490612455565b80156108b15780601f10610886576101008083540402835291602001916108b1565b820191906000526020600020905b81548152906001019060200180831161089457829003601f168201915b5050505050905090565b6108cd6108c6610b11565b8383610edc565b5050565b60606108de84848461069f565b60006040518060400160405280600781526020017f73756363657373000000000000000000000000000000000000000000000000008152509050809150509392505050565b61093461092e610b11565b83610bd2565b610973576040517f08c379a000000000000000000000000000000000000000000000000000000000815260040161096a906121df565b60405180910390fd5b61097f84848484611049565b50505050565b6060610990826110a5565b9050919050565b6000600560008473ffffffffffffffffffffffffffffffffffffffff1673ffffffffffffffffffffffffffffffffffffffff16815260200190815260200160002060008373ffffffffffffffffffffffffffffffffffffffff1673ffffffffffffffffffffffffffffffffffffffff16815260200190815260200160002060009054906101000a900460ff16905092915050565b6000610a376007610ece565b9050610a4360076111b8565b610a4d83826111ce565b610a5781836111ec565b505050565b60007f01ffc9a7000000000000000000000000000000000000000000000000000000007bffffffffffffffffffffffffffffffffffffffffffffffffffffffff1916827bffffffffffffffffffffffffffffffffffffffffffffffffffffffff1916149050919050565b610acf81611260565b610b0e576040517f08c379a0000000000000000000000000000000000000000000000000000000008152600401610b059061219f565b60405180910390fd5b50565b600033905090565b816004600083815260200190815260200160002060006101000a81548173ffffffffffffffffffffffffffffffffffffffff021916908373ffffffffffffffffffffffffffffffffffffffff160217905550808273ffffffffffffffffffffffffffffffffffffffff16610b8c836106bf565b73ffffffffffffffffffffffffffffffffffffffff167f8c5be1e5ebec7d5bd14f71427d1e84f3dd0314c0f7b2291e5b200ac8c7c3b92560405160405180910390a45050565b600080610bde836106bf565b90508073ffffffffffffffffffffffffffffffffffffffff168473ffffffffffffffffffffffffffffffffffffffff161480610c205750610c1f8185610997565b5b80610c5e57508373ffffffffffffffffffffffffffffffffffffffff16610c46846104cb565b73ffffffffffffffffffffffffffffffffffffffff16145b91505092915050565b8273ffffffffffffffffffffffffffffffffffffffff16610c87826106bf565b73ffffffffffffffffffffffffffffffffffffffff1614610cdd576040517f08c379a0000000000000000000000000000000000000000000000000000000008152600401610cd49061209f565b60405180910390fd5b600073ffffffffffffffffffffffffffffffffffffffff168273ffffffffffffffffffffffffffffffffffffffff161415610d4d576040517f08c379a0000000000000000000000000000000000000000000000000000000008152600401610d44906120df565b60405180910390fd5b610d588383836112cc565b610d63600082610b19565b6001600360008573ffffffffffffffffffffffffffffffffffffffff1673ffffffffffffffffffffffffffffffffffffffff1681526020019081526020016000206000828254610db3919061236b565b925050819055506001600360008473ffffffffffffffffffffffffffffffffffffffff1673ffffffffffffffffffffffffffffffffffffffff1681526020019081526020016000206000828254610e0a91906122e4565b92505081905550816002600083815260200190815260200160002060006101000a81548173ffffffffffffffffffffffffffffffffffffffff021916908373ffffffffffffffffffffffffffffffffffffffff160217905550808273ffffffffffffffffffffffffffffffffffffffff168473ffffffffffffffffffffffffffffffffffffffff167fddf252ad1be2c89b69c2b068fc378daa952ba7f163c4a11628f55a4df523b3ef60405160405180910390a4610ec98383836112d1565b505050565b600081600001549050919050565b8173ffffffffffffffffffffffffffffffffffffffff168373ffffffffffffffffffffffffffffffffffffffff161415610f4b576040517f08c379a0000000000000000000000000000000000000000000000000000000008152600401610f42906120ff565b60405180910390fd5b80600560008573ffffffffffffffffffffffffffffffffffffffff1673ffffffffffffffffffffffffffffffffffffffff16815260200190815260200160002060008473ffffffffffffffffffffffffffffffffffffffff1673ffffffffffffffffffffffffffffffffffffffff16815260200190815260200160002060006101000a81548160ff0219169083151502179055508173ffffffffffffffffffffffffffffffffffffffff168373ffffffffffffffffffffffffffffffffffffffff167f17307eab39ab6107e8899845ad3d59bd9653f200f220920489ca2b5937696c318360405161103c9190612042565b60405180910390a3505050565b611054848484610c67565b611060848484846112d6565b61109f576040517f08c379a00000000000000000000000000000000000000000000000000000000081526004016110969061207f565b60405180910390fd5b50505050565b60606110b082610ac6565b60006006600084815260200190815260200160002080546110d090612455565b80601f01602080910402602001604051908101604052809291908181526020018280546110fc90612455565b80156111495780601f1061111e57610100808354040283529160200191611149565b820191906000526020600020905b81548152906001019060200180831161112c57829003601f168201915b50505050509050600061115a61146d565b90506000815114156111705781925050506111b3565b6000825111156111a557808260405160200161118d929190611fb7565b604051602081830303815290604052925050506111b3565b6111ae84611484565b925050505b919050565b6001816000016000828254019250508190555050565b6111e88282604051806020016040528060008152506114ec565b5050565b6111f582611260565b611234576040517f08c379a000000000000000000000000000000000000000000000000000000000815260040161122b9061213f565b60405180910390fd5b8060066000848152602001908152602001600020908051906020019061125b9291906118f1565b505050565b60008073ffffffffffffffffffffffffffffffffffffffff166002600084815260200190815260200160002060009054906101000a900473ffffffffffffffffffffffffffffffffffffffff1673ffffffffffffffffffffffffffffffffffffffff1614159050919050565b505050565b505050565b60006112f78473ffffffffffffffffffffffffffffffffffffffff16611547565b15611460578373ffffffffffffffffffffffffffffffffffffffff1663150b7a02611320610b11565b8786866040518563ffffffff1660e01b81526004016113429493929190611ff6565b602060405180830381600087803b15801561135c57600080fd5b505af192505050801561138d57506040513d601f19601f8201168201806040525081019061138a9190611cf1565b60015b611410573d80600081146113bd576040519150601f19603f3d011682016040523d82523d6000602084013e6113c2565b606091505b50600081511415611408576040517f08c379a00000000000000000000000000000000000000000000000000000000081526004016113ff9061207f565b60405180910390fd5b805181602001fd5b63150b7a0260e01b7bffffffffffffffffffffffffffffffffffffffffffffffffffffffff1916817bffffffffffffffffffffffffffffffffffffffffffffffffffffffff191614915050611465565b600190505b949350505050565b606060405180602001604052806000815250905090565b606061148f82610ac6565b600061149961146d565b905060008151116114b957604051806020016040528060008152506114e4565b806114c38461156a565b6040516020016114d4929190611fb7565b6040516020818303038152906040525b915050919050565b6114f68383611717565b61150360008484846112d6565b611542576040517f08c379a00000000000000000000000000000000000000000000000000000000081526004016115399061207f565b60405180910390fd5b505050565b6000808273ffffffffffffffffffffffffffffffffffffffff163b119050919050565b606060008214156115b2576040518060400160405280600181526020017f30000000000000000000000000000000000000000000000000000000000000008152509050611712565b600082905060005b600082146115e45780806115cd906124b8565b915050600a826115dd919061233a565b91506115ba565b60008167ffffffffffffffff811115611626577f4e487b7100000000000000000000000000000000000000000000000000000000600052604160045260246000fd5b6040519080825280601f01601f1916602001820160405280156116585781602001600182028036833780820191505090505b5090505b6000851461170b57600182611671919061236b565b9150600a856116809190612501565b603061168c91906122e4565b60f81b8183815181106116c8577f4e487b7100000000000000000000000000000000000000000000000000000000600052603260045260246000fd5b60200101907effffffffffffffffffffffffffffffffffffffffffffffffffffffffffffff1916908160001a905350600a85611704919061233a565b945061165c565b8093505050505b919050565b600073ffffffffffffffffffffffffffffffffffffffff168273ffffffffffffffffffffffffffffffffffffffff161415611787576040517f08c379a000000000000000000000000000000000000000000000000000000000815260040161177e9061217f565b60405180910390fd5b61179081611260565b156117d0576040517f08c379a00000000000000000000000000000000000000000000000000000000081526004016117c7906120bf565b60405180910390fd5b6117dc600083836112cc565b6001600360008473ffffffffffffffffffffffffffffffffffffffff1673ffffffffffffffffffffffffffffffffffffffff168152602001908152602001600020600082825461182c91906122e4565b92505081905550816002600083815260200190815260200160002060006101000a81548173ffffffffffffffffffffffffffffffffffffffff021916908373ffffffffffffffffffffffffffffffffffffffff160217905550808273ffffffffffffffffffffffffffffffffffffffff16600073ffffffffffffffffffffffffffffffffffffffff167fddf252ad1be2c89b69c2b068fc378daa952ba7f163c4a11628f55a4df523b3ef60405160405180910390a46118ed600083836112d1565b5050565b8280546118fd90612455565b90600052602060002090601f01602090048101928261191f5760008555611966565b82601f1061193857805160ff1916838001178555611966565b82800160010185558215611966579182015b8281111561196557825182559160200191906001019061194a565b5b5090506119739190611977565b5090565b5b80821115611990576000816000905550600101611978565b5090565b60006119a76119a28461223f565b61221a565b9050828152602081018484840111156119bf57600080fd5b6119ca848285612413565b509392505050565b60006119e56119e084612270565b61221a565b9050828152602081018484840111156119fd57600080fd5b611a08848285612413565b509392505050565b600081359050611a1f8161291b565b92915050565b600081359050611a3481612932565b92915050565b600081359050611a4981612949565b92915050565b600081519050611a5e81612949565b92915050565b600082601f830112611a7557600080fd5b8135611a85848260208601611994565b91505092915050565b600082601f830112611a9f57600080fd5b8135611aaf8482602086016119d2565b91505092915050565b600081359050611ac781612960565b92915050565b600060208284031215611adf57600080fd5b6000611aed84828501611a10565b91505092915050565b60008060408385031215611b0957600080fd5b6000611b1785828601611a10565b9250506020611b2885828601611a10565b9150509250929050565b600080600060608486031215611b4757600080fd5b6000611b5586828701611a10565b9350506020611b6686828701611a10565b9250506040611b7786828701611ab8565b9150509250925092565b60008060008060808587031215611b9757600080fd5b6000611ba587828801611a10565b9450506020611bb687828801611a10565b9350506040611bc787828801611ab8565b925050606085013567ffffffffffffffff811115611be457600080fd5b611bf087828801611a64565b91505092959194509250565b60008060408385031215611c0f57600080fd5b6000611c1d85828601611a10565b9250506020611c2e85828601611a25565b9150509250929050565b60008060408385031215611c4b57600080fd5b6000611c5985828601611a10565b925050602083013567ffffffffffffffff811115611c7657600080fd5b611c8285828601611a8e565b9150509250929050565b60008060408385031215611c9f57600080fd5b6000611cad85828601611a10565b9250506020611cbe85828601611ab8565b9150509250929050565b600060208284031215611cda57600080fd5b6000611ce884828501611a3a565b91505092915050565b600060208284031215611d0357600080fd5b6000611d1184828501611a4f565b91505092915050565b600060208284031215611d2c57600080fd5b6000611d3a84828501611ab8565b91505092915050565b611d4c8161239f565b82525050565b611d5b816123b1565b82525050565b6000611d6c826122a1565b611d7681856122b7565b9350611d86818560208601612422565b611d8f816125ee565b840191505092915050565b6000611da5826122ac565b611daf81856122c8565b9350611dbf818560208601612422565b611dc8816125ee565b840191505092915050565b6000611dde826122ac565b611de881856122d9565b9350611df8818560208601612422565b80840191505092915050565b6000611e116032836122c8565b9150611e1c826125ff565b604082019050919050565b6000611e346025836122c8565b9150611e3f8261264e565b604082019050919050565b6000611e57601c836122c8565b9150611e628261269d565b602082019050919050565b6000611e7a6024836122c8565b9150611e85826126c6565b604082019050919050565b6000611e9d6019836122c8565b9150611ea882612715565b602082019050919050565b6000611ec06029836122c8565b9150611ecb8261273e565b604082019050919050565b6000611ee3602e836122c8565b9150611eee8261278d565b604082019050919050565b6000611f06603e836122c8565b9150611f11826127dc565b604082019050919050565b6000611f296020836122c8565b9150611f348261282b565b602082019050919050565b6000611f4c6018836122c8565b9150611f5782612854565b602082019050919050565b6000611f6f6021836122c8565b9150611f7a8261287d565b604082019050919050565b6000611f92602e836122c8565b9150611f9d826128cc565b604082019050919050565b611fb181612409565b82525050565b6000611fc38285611dd3565b9150611fcf8284611dd3565b91508190509392505050565b6000602082019050611ff06000830184611d43565b92915050565b600060808201905061200b6000830187611d43565b6120186020830186611d43565b6120256040830185611fa8565b81810360608301526120378184611d61565b905095945050505050565b60006020820190506120576000830184611d52565b92915050565b600060208201905081810360008301526120778184611d9a565b905092915050565b6000602082019050818103600083015261209881611e04565b9050919050565b600060208201905081810360008301526120b881611e27565b9050919050565b600060208201905081810360008301526120d881611e4a565b9050919050565b600060208201905081810360008301526120f881611e6d565b9050919050565b6000602082019050818103600083015261211881611e90565b9050919050565b6000602082019050818103600083015261213881611eb3565b9050919050565b6000602082019050818103600083015261215881611ed6565b9050919050565b6000602082019050818103600083015261217881611ef9565b9050919050565b6000602082019050818103600083015261219881611f1c565b9050919050565b600060208201905081810360008301526121b881611f3f565b9050919050565b600060208201905081810360008301526121d881611f62565b9050919050565b600060208201905081810360008301526121f881611f85565b9050919050565b60006020820190506122146000830184611fa8565b92915050565b6000612224612235565b90506122308282612487565b919050565b6000604051905090565b600067ffffffffffffffff82111561225a576122596125bf565b5b612263826125ee565b9050602081019050919050565b600067ffffffffffffffff82111561228b5761228a6125bf565b5b612294826125ee565b9050602081019050919050565b600081519050919050565b600081519050919050565b600082825260208201905092915050565b600082825260208201905092915050565b600081905092915050565b60006122ef82612409565b91506122fa83612409565b9250827fffffffffffffffffffffffffffffffffffffffffffffffffffffffffffffffff0382111561232f5761232e612532565b5b828201905092915050565b600061234582612409565b915061235083612409565b9250826123605761235f612561565b5b828204905092915050565b600061237682612409565b915061238183612409565b92508282101561239457612393612532565b5b828203905092915050565b60006123aa826123e9565b9050919050565b60008115159050919050565b60007fffffffff0000000000000000000000000000000000000000000000000000000082169050919050565b600073ffffffffffffffffffffffffffffffffffffffff82169050919050565b6000819050919050565b82818337600083830152505050565b60005b83811015612440578082015181840152602081019050612425565b8381111561244f576000848401525b50505050565b6000600282049050600182168061246d57607f821691505b6020821081141561248157612480612590565b5b50919050565b612490826125ee565b810181811067ffffffffffffffff821117156124af576124ae6125bf565b5b80604052505050565b60006124c382612409565b91507fffffffffffffffffffffffffffffffffffffffffffffffffffffffffffffffff8214156124f6576124f5612532565b5b600182019050919050565b600061250c82612409565b915061251783612409565b92508261252757612526612561565b5b828206905092915050565b7f4e487b7100000000000000000000000000000000000000000000000000000000600052601160045260246000fd5b7f4e487b7100000000000000000000000000000000000000000000000000000000600052601260045260246000fd5b7f4e487b7100000000000000000000000000000000000000000000000000000000600052602260045260246000fd5b7f4e487b7100000000000000000000000000000000000000000000000000000000600052604160045260246000fd5b6000601f19601f8301169050919050565b7f4552433732313a207472616e7366657220746f206e6f6e20455243373231526560008201527f63656976657220696d706c656d656e7465720000000000000000000000000000602082015250565b7f4552433732313a207472616e736665722066726f6d20696e636f72726563742060008201527f6f776e6572000000000000000000000000000000000000000000000000000000602082015250565b7f4552433732313a20746f6b656e20616c7265616479206d696e74656400000000600082015250565b7f4552433732313a207472616e7366657220746f20746865207a65726f2061646460008201527f7265737300000000000000000000000000000000000000000000000000000000602082015250565b7f4552433732313a20617070726f766520746f2063616c6c657200000000000000600082015250565b7f4552433732313a2061646472657373207a65726f206973206e6f74206120766160008201527f6c6964206f776e65720000000000000000000000000000000000000000000000602082015250565b7f45524337323155524953746f726167653a2055524920736574206f66206e6f6e60008201527f6578697374656e7420746f6b656e000000000000000000000000000000000000602082015250565b7f4552433732313a20617070726f76652063616c6c6572206973206e6f7420746f60008201527f6b656e206f776e6572206e6f7220617070726f76656420666f7220616c6c0000602082015250565b7f4552433732313a206d696e7420746f20746865207a65726f2061646472657373600082015250565b7f4552433732313a20696e76616c696420746f6b656e2049440000000000000000600082015250565b7f4552433732313a20617070726f76616c20746f2063757272656e74206f776e6560008201527f7200000000000000000000000000000000000000000000000000000000000000602082015250565b7f4552433732313a2063616c6c6572206973206e6f7420746f6b656e206f776e6560008201527f72206e6f7220617070726f766564000000000000000000000000000000000000602082015250565b6129248161239f565b811461292f57600080fd5b50565b61293b816123b1565b811461294657600080fd5b50565b612952816123bd565b811461295d57600080fd5b50565b61296981612409565b811461297457600080fd5b5056fea2646970667358221220282833a869caddc535d3faa66fa8186b0aeaf987bb5fdcc77d6c4865b54c3d4a64736f6c63430008040033",
  "linkReferences": {},
  "deployedLinkReferences": {}
}