{
  "_format": "hh-sol-artifact-1",
  "contractName": "MyNFT",
  "sourceName": "contracts/MyNFT.sol",
  "abi": [
    {
      "inputs": [],
      "stateMutability": "nonpayable",
      "type": "constructor"
    },
    {
      "anonymous": false,
      "inputs": [
        {
          "indexed": true,
          "internalType": "address",
          "name": "owner",
          "type": "address"
        },
        {
          "indexed": true,
          "internalType": "address",
          "name": "approved",
          "type": "address"
        },
        {
          "indexed": true,
          "internalType": "uint256",
          "name": "tokenId",
          "type": "uint256"
        }
      ],
      "name": "Approval",
      "type": "event"
    },
    {
      "anonymous": false,
      "inputs": [
        {
          "indexed": true,
          "internalType": "address",
          "name": "owner",
          "type": "address"
        },
        {
          "indexed": true,
          "internalType": "address",
          "name": "operator",
          "type": "address"
        },
        {
          "indexed": false,
          "internalType": "bool",
          "name": "approved",
          "type": "bool"
        }
      ],
      "name": "ApprovalForAll",
      "type": "event"
    },
    {
      "anonymous": false,
      "inputs": [
        {
          "indexed": true,
          "internalType": "address",
          "name": "from",
          "type": "address"
        },
        {
          "indexed": true,
          "internalType": "address",
          "name": "to",
          "type": "address"
        },
        {
          "indexed": true,
          "internalType": "uint256",
          "name": "tokenId",
          "type": "uint256"
        }
      ],
      "name": "Transfer",
      "type": "event"
    },
    {
      "inputs": [
        {
          "internalType": "address",
          "name": "to",
          "type": "address"
        },
        {
          "internalType": "uint256",
          "name": "tokenId",
          "type": "uint256"
        }
      ],
      "name": "approve",
      "outputs": [],
      "stateMutability": "nonpayable",
      "type": "function"
    },
    {
      "inputs": [
        {
          "internalType": "address",
          "name": "owner",
          "type": "address"
        }
      ],
      "name": "balanceOf",
      "outputs": [
        {
          "internalType": "uint256",
          "name": "",
          "type": "uint256"
        }
      ],
      "stateMutability": "view",
      "type": "function"
    },
    {
      "inputs": [
        {
          "internalType": "uint256",
          "name": "tokenId",
          "type": "uint256"
        }
      ],
      "name": "getApproved",
      "outputs": [
        {
          "internalType": "address",
          "name": "",
          "type": "address"
        }
      ],
      "stateMutability": "view",
      "type": "function"
    },
    {
      "inputs": [
        {
          "internalType": "address",
          "name": "owner",
          "type": "address"
        },
        {
          "internalType": "address",
          "name": "operator",
          "type": "address"
        }
      ],
      "name": "isApprovedForAll",
      "outputs": [
        {
          "internalType": "bool",
          "name": "",
          "type": "bool"
        }
      ],
      "stateMutability": "view",
      "type": "function"
    },
    {
      "inputs": [],
      "name": "latest_tokenId",
      "outputs": [
        {
          "internalType": "uint256",
          "name": "",
          "type": "uint256"
        }
      ],
      "stateMutability": "view",
      "type": "function"
    },
    {
      "inputs": [
        {
          "internalType": "address",
          "name": "to",
          "type": "address"
        },
        {
          "internalType": "string",
          "name": "uri",
          "type": "string"
        }
      ],
      "name": "mintNFT",
      "outputs": [],
      "stateMutability": "nonpayable",
      "type": "function"
    },
    {
      "inputs": [],
      "name": "name",
      "outputs": [
        {
          "internalType": "string",
          "name": "",
          "type": "string"
        }
      ],
      "stateMutability": "view",
      "type": "function"
    },
    {
      "inputs": [
        {
          "internalType": "uint256",
          "name": "tokenId",
          "type": "uint256"
        }
      ],
      "name": "ownerOf",
      "outputs": [
        {
          "internalType": "address",
          "name": "",
          "type": "address"
        }
      ],
      "stateMutability": "view",
      "type": "function"
    },
    {
      "inputs": [
        {
          "internalType": "address",
          "name": "from",
          "type": "address"
        },
        {
          "internalType": "address",
          "name": "to",
          "type": "address"
        },
        {
          "internalType": "uint256",
          "name": "tokenId",
          "type": "uint256"
        }
      ],
      "name": "safeTransferFrom",
      "outputs": [],
      "stateMutability": "nonpayable",
      "type": "function"
    },
    {
      "inputs": [
        {
          "internalType": "address",
          "name": "from",
          "type": "address"
        },
        {
          "internalType": "address",
          "name": "to",
          "type": "address"
        },
        {
          "internalType": "uint256",
          "name": "tokenId",
          "type": "uint256"
        },
        {
          "internalType": "bytes",
          "name": "data",
          "type": "bytes"
        }
      ],
      "name": "safeTransferFrom",
      "outputs": [],
      "stateMutability": "nonpayable",
      "type": "function"
    },
    {
      "inputs": [
        {
          "internalType": "address",
          "name": "operator",
          "type": "address"
        },
        {
          "internalType": "bool",
          "name": "approved",
          "type": "bool"
        }
      ],
      "name": "setApprovalForAll",
      "outputs": [],
      "stateMutability": "nonpayable",
      "type": "function"
    },
    {
      "inputs": [
        {
          "internalType": "bytes4",
          "name": "interfaceId",
          "type": "bytes4"
        }
      ],
      "name": "supportsInterface",
      "outputs": [
        {
          "internalType": "bool",
          "name": "",
          "type": "bool"
        }
      ],
      "stateMutability": "view",
      "type": "function"
    },
    {
      "inputs": [],
      "name": "symbol",
      "outputs": [
        {
          "internalType": "string",
          "name": "",
          "type": "string"
        }
      ],
      "stateMutability": "view",
      "type": "function"
    },
    {
      "inputs": [
        {
          "internalType": "uint256",
          "name": "tokenId",
          "type": "uint256"
        }
      ],
      "name": "tokenURI",
      "outputs": [
        {
          "internalType": "string",
          "name": "",
          "type": "string"
        }
      ],
      "stateMutability": "view",
      "type": "function"
    },
    {
      "inputs": [
        {
          "internalType": "address",
          "name": "from",
          "type": "address"
        },
        {
          "internalType": "address",
          "name": "to",
          "type": "address"
        },
        {
          "internalType": "uint256",
          "name": "tokenId",
          "type": "uint256"
        }
      ],
      "name": "transferFrom",
      "outputs": [],
      "stateMutability": "nonpayable",
      "type": "function"
    },
    {
      "inputs": [
        {
          "internalType": "address",
          "name": "from",
          "type": "address"
        },
        {
          "internalType": "address",
          "name": "to",
          "type": "address"
        },
        {
          "internalType": "uint256",
          "name": "tokenId",
          "type": "uint256"
        }
      ],
      "name": "transferNFT",
      "outputs": [],
      "stateMutability": "nonpayable",
      "type": "function"
    }
  ],
  "bytecode": "0x60806040523480156200001157600080fd5b506040518060400160405280600581526020017f4d794e46540000000000000000000000000000000000000000000000000000008152506040518060400160405280600381526020017f4e46540000000000000000000000000000000000000000000000000000000000815250816000908051906020019062000096929190620000b8565b508060019080519060200190620000af929190620000b8565b505050620001cd565b828054620000c69062000168565b90600052602060002090601f016020900481019282620000ea576000855562000136565b82601f106200010557805160ff191683800117855562000136565b8280016001018555821562000136579182015b828111156200013557825182559160200191906001019062000118565b5b50905062000145919062000149565b5090565b5b80821115620001645760008160009055506001016200014a565b5090565b600060028204905060018216806200018157607f821691505b602082108114156200019857620001976200019e565b5b50919050565b7f4e487b7100000000000000000000000000000000000000000000000000000000600052602260045260246000fd5b61295780620001dd6000396000f3fe608060405234801561001057600080fd5b50600436106101005760003560e01c806369e9cae111610097578063b88d4fde11610066578063b88d4fde146102ab578063c87b56dd146102c7578063e985e9c5146102f7578063eacabe141461032757610100565b806369e9cae11461022557806370a082311461024157806395d89b4114610271578063a22cb4651461028f57610100565b806323b872dd116100d357806323b872dd1461019f57806326b3314f146101bb57806342842e0e146101d95780636352211e146101f557610100565b806301ffc9a71461010557806306fdde0314610135578063081812fc14610153578063095ea7b314610183575b600080fd5b61011f600480360381019061011a9190611c72565b610343565b60405161012c9190611fec565b60405180910390f35b61013d610425565b60405161014a9190612007565b60405180910390f35b61016d60048036038101906101689190611cc4565b6104b7565b60405161017a9190611f85565b60405180910390f35b61019d60048036038101906101989190611c36565b6104fd565b005b6101b960048036038101906101b49190611adc565b610615565b005b6101c3610675565b6040516101d091906121a9565b60405180910390f35b6101f360048036038101906101ee9190611adc565b61068b565b005b61020f600480360381019061020a9190611cc4565b6106ab565b60405161021c9190611f85565b60405180910390f35b61023f600480360381019061023a9190611adc565b61075d565b005b61025b60048036038101906102569190611a77565b61076d565b60405161026891906121a9565b60405180910390f35b610279610825565b6040516102869190612007565b60405180910390f35b6102a960048036038101906102a49190611ba6565b6108b7565b005b6102c560048036038101906102c09190611b2b565b6108cd565b005b6102e160048036038101906102dc9190611cc4565b61092f565b6040516102ee9190612007565b60405180910390f35b610311600480360381019061030c9190611aa0565b610941565b60405161031e9190611fec565b60405180910390f35b610341600480360381019061033c9190611be2565b6109d5565b005b60007f80ac58cd000000000000000000000000000000000000000000000000000000007bffffffffffffffffffffffffffffffffffffffffffffffffffffffff1916827bffffffffffffffffffffffffffffffffffffffffffffffffffffffff1916148061040e57507f5b5e139f000000000000000000000000000000000000000000000000000000007bffffffffffffffffffffffffffffffffffffffffffffffffffffffff1916827bffffffffffffffffffffffffffffffffffffffffffffffffffffffff1916145b8061041e575061041d82610a06565b5b9050919050565b606060008054610434906123ff565b80601f0160208091040260200160405190810160405280929190818152602001828054610460906123ff565b80156104ad5780601f10610482576101008083540402835291602001916104ad565b820191906000526020600020905b81548152906001019060200180831161049057829003601f168201915b5050505050905090565b60006104c282610a70565b6004600083815260200190815260200160002060009054906101000a900473ffffffffffffffffffffffffffffffffffffffff169050919050565b6000610508826106ab565b90508073ffffffffffffffffffffffffffffffffffffffff168373ffffffffffffffffffffffffffffffffffffffff161415610579576040517f08c379a000000000000000000000000000000000000000000000000000000000815260040161057090612169565b60405180910390fd5b8073ffffffffffffffffffffffffffffffffffffffff16610598610abb565b73ffffffffffffffffffffffffffffffffffffffff1614806105c757506105c6816105c1610abb565b610941565b5b610606576040517f08c379a00000000000000000000000000000000000000000000000000000000081526004016105fd90612109565b60405180910390fd5b6106108383610ac3565b505050565b610626610620610abb565b82610b7c565b610665576040517f08c379a000000000000000000000000000000000000000000000000000000000815260040161065c90612189565b60405180910390fd5b610670838383610c11565b505050565b6000806106826007610e78565b90508091505090565b6106a6838383604051806020016040528060008152506108cd565b505050565b6000806002600084815260200190815260200160002060009054906101000a900473ffffffffffffffffffffffffffffffffffffffff169050600073ffffffffffffffffffffffffffffffffffffffff168173ffffffffffffffffffffffffffffffffffffffff161415610754576040517f08c379a000000000000000000000000000000000000000000000000000000000815260040161074b90612149565b60405180910390fd5b80915050919050565b610768838383610c11565b505050565b60008073ffffffffffffffffffffffffffffffffffffffff168273ffffffffffffffffffffffffffffffffffffffff1614156107de576040517f08c379a00000000000000000000000000000000000000000000000000000000081526004016107d5906120c9565b60405180910390fd5b600360008373ffffffffffffffffffffffffffffffffffffffff1673ffffffffffffffffffffffffffffffffffffffff168152602001908152602001600020549050919050565b606060018054610834906123ff565b80601f0160208091040260200160405190810160405280929190818152602001828054610860906123ff565b80156108ad5780601f10610882576101008083540402835291602001916108ad565b820191906000526020600020905b81548152906001019060200180831161089057829003601f168201915b5050505050905090565b6108c96108c2610abb565b8383610e86565b5050565b6108de6108d8610abb565b83610b7c565b61091d576040517f08c379a000000000000000000000000000000000000000000000000000000000815260040161091490612189565b60405180910390fd5b61092984848484610ff3565b50505050565b606061093a8261104f565b9050919050565b6000600560008473ffffffffffffffffffffffffffffffffffffffff1673ffffffffffffffffffffffffffffffffffffffff16815260200190815260200160002060008373ffffffffffffffffffffffffffffffffffffffff1673ffffffffffffffffffffffffffffffffffffffff16815260200190815260200160002060009054906101000a900460ff16905092915050565b60006109e16007610e78565b90506109ed6007611162565b6109f78382611178565b610a018183611196565b505050565b60007f01ffc9a7000000000000000000000000000000000000000000000000000000007bffffffffffffffffffffffffffffffffffffffffffffffffffffffff1916827bffffffffffffffffffffffffffffffffffffffffffffffffffffffff1916149050919050565b610a798161120a565b610ab8576040517f08c379a0000000000000000000000000000000000000000000000000000000008152600401610aaf90612149565b60405180910390fd5b50565b600033905090565b816004600083815260200190815260200160002060006101000a81548173ffffffffffffffffffffffffffffffffffffffff021916908373ffffffffffffffffffffffffffffffffffffffff160217905550808273ffffffffffffffffffffffffffffffffffffffff16610b36836106ab565b73ffffffffffffffffffffffffffffffffffffffff167f8c5be1e5ebec7d5bd14f71427d1e84f3dd0314c0f7b2291e5b200ac8c7c3b92560405160405180910390a45050565b600080610b88836106ab565b90508073ffffffffffffffffffffffffffffffffffffffff168473ffffffffffffffffffffffffffffffffffffffff161480610bca5750610bc98185610941565b5b80610c0857508373ffffffffffffffffffffffffffffffffffffffff16610bf0846104b7565b73ffffffffffffffffffffffffffffffffffffffff16145b91505092915050565b8273ffffffffffffffffffffffffffffffffffffffff16610c31826106ab565b73ffffffffffffffffffffffffffffffffffffffff1614610c87576040517f08c379a0000000000000000000000000000000000000000000000000000000008152600401610c7e90612049565b60405180910390fd5b600073ffffffffffffffffffffffffffffffffffffffff168273ffffffffffffffffffffffffffffffffffffffff161415610cf7576040517f08c379a0000000000000000000000000000000000000000000000000000000008152600401610cee90612089565b60405180910390fd5b610d02838383611276565b610d0d600082610ac3565b6001600360008573ffffffffffffffffffffffffffffffffffffffff1673ffffffffffffffffffffffffffffffffffffffff1681526020019081526020016000206000828254610d5d9190612315565b925050819055506001600360008473ffffffffffffffffffffffffffffffffffffffff1673ffffffffffffffffffffffffffffffffffffffff1681526020019081526020016000206000828254610db4919061228e565b92505081905550816002600083815260200190815260200160002060006101000a81548173ffffffffffffffffffffffffffffffffffffffff021916908373ffffffffffffffffffffffffffffffffffffffff160217905550808273ffffffffffffffffffffffffffffffffffffffff168473ffffffffffffffffffffffffffffffffffffffff167fddf252ad1be2c89b69c2b068fc378daa952ba7f163c4a11628f55a4df523b3ef60405160405180910390a4610e7383838361127b565b505050565b600081600001549050919050565b8173ffffffffffffffffffffffffffffffffffffffff168373ffffffffffffffffffffffffffffffffffffffff161415610ef5576040517f08c379a0000000000000000000000000000000000000000000000000000000008152600401610eec906120a9565b60405180910390fd5b80600560008573ffffffffffffffffffffffffffffffffffffffff1673ffffffffffffffffffffffffffffffffffffffff16815260200190815260200160002060008473ffffffffffffffffffffffffffffffffffffffff1673ffffffffffffffffffffffffffffffffffffffff16815260200190815260200160002060006101000a81548160ff0219169083151502179055508173ffffffffffffffffffffffffffffffffffffffff168373ffffffffffffffffffffffffffffffffffffffff167f17307eab39ab6107e8899845ad3d59bd9653f200f220920489ca2b5937696c3183604051610fe69190611fec565b60405180910390a3505050565b610ffe848484610c11565b61100a84848484611280565b611049576040517f08c379a000000000000000000000000000000000000000000000000000000000815260040161104090612029565b60405180910390fd5b50505050565b606061105a82610a70565b600060066000848152602001908152602001600020805461107a906123ff565b80601f01602080910402602001604051908101604052809291908181526020018280546110a6906123ff565b80156110f35780601f106110c8576101008083540402835291602001916110f3565b820191906000526020600020905b8154815290600101906020018083116110d657829003601f168201915b505050505090506000611104611417565b905060008151141561111a57819250505061115d565b60008251111561114f578082604051602001611137929190611f61565b6040516020818303038152906040529250505061115d565b6111588461142e565b925050505b919050565b6001816000016000828254019250508190555050565b611192828260405180602001604052806000815250611496565b5050565b61119f8261120a565b6111de576040517f08c379a00000000000000000000000000000000000000000000000000000000081526004016111d5906120e9565b60405180910390fd5b8060066000848152602001908152602001600020908051906020019061120592919061189b565b505050565b60008073ffffffffffffffffffffffffffffffffffffffff166002600084815260200190815260200160002060009054906101000a900473ffffffffffffffffffffffffffffffffffffffff1673ffffffffffffffffffffffffffffffffffffffff1614159050919050565b505050565b505050565b60006112a18473ffffffffffffffffffffffffffffffffffffffff166114f1565b1561140a578373ffffffffffffffffffffffffffffffffffffffff1663150b7a026112ca610abb565b8786866040518563ffffffff1660e01b81526004016112ec9493929190611fa0565b602060405180830381600087803b15801561130657600080fd5b505af192505050801561133757506040513d601f19601f820116820180604052508101906113349190611c9b565b60015b6113ba573d8060008114611367576040519150601f19603f3d011682016040523d82523d6000602084013e61136c565b606091505b506000815114156113b2576040517f08c379a00000000000000000000000000000000000000000000000000000000081526004016113a990612029565b60405180910390fd5b805181602001fd5b63150b7a0260e01b7bffffffffffffffffffffffffffffffffffffffffffffffffffffffff1916817bffffffffffffffffffffffffffffffffffffffffffffffffffffffff19161491505061140f565b600190505b949350505050565b606060405180602001604052806000815250905090565b606061143982610a70565b6000611443611417565b90506000815111611463576040518060200160405280600081525061148e565b8061146d84611514565b60405160200161147e929190611f61565b6040516020818303038152906040525b915050919050565b6114a083836116c1565b6114ad6000848484611280565b6114ec576040517f08c379a00000000000000000000000000000000000000000000000000000000081526004016114e390612029565b60405180910390fd5b505050565b6000808273ffffffffffffffffffffffffffffffffffffffff163b119050919050565b6060600082141561155c576040518060400160405280600181526020017f300000000000000000000000000000000000000000000000000000000000000081525090506116bc565b600082905060005b6000821461158e57808061157790612462565b915050600a8261158791906122e4565b9150611564565b60008167ffffffffffffffff8111156115d0577f4e487b7100000000000000000000000000000000000000000000000000000000600052604160045260246000fd5b6040519080825280601f01601f1916602001820160405280156116025781602001600182028036833780820191505090505b5090505b600085146116b55760018261161b9190612315565b9150600a8561162a91906124ab565b6030611636919061228e565b60f81b818381518110611672577f4e487b7100000000000000000000000000000000000000000000000000000000600052603260045260246000fd5b60200101907effffffffffffffffffffffffffffffffffffffffffffffffffffffffffffff1916908160001a905350600a856116ae91906122e4565b9450611606565b8093505050505b919050565b600073ffffffffffffffffffffffffffffffffffffffff168273ffffffffffffffffffffffffffffffffffffffff161415611731576040517f08c379a000000000000000000000000000000000000000000000000000000000815260040161172890612129565b60405180910390fd5b61173a8161120a565b1561177a576040517f08c379a000000000000000000000000000000000000000000000000000000000815260040161177190612069565b60405180910390fd5b61178660008383611276565b6001600360008473ffffffffffffffffffffffffffffffffffffffff1673ffffffffffffffffffffffffffffffffffffffff16815260200190815260200160002060008282546117d6919061228e565b92505081905550816002600083815260200190815260200160002060006101000a81548173ffffffffffffffffffffffffffffffffffffffff021916908373ffffffffffffffffffffffffffffffffffffffff160217905550808273ffffffffffffffffffffffffffffffffffffffff16600073ffffffffffffffffffffffffffffffffffffffff167fddf252ad1be2c89b69c2b068fc378daa952ba7f163c4a11628f55a4df523b3ef60405160405180910390a46118976000838361127b565b5050565b8280546118a7906123ff565b90600052602060002090601f0160209004810192826118c95760008555611910565b82601f106118e257805160ff1916838001178555611910565b82800160010185558215611910579182015b8281111561190f5782518255916020019190600101906118f4565b5b50905061191d9190611921565b5090565b5b8082111561193a576000816000905550600101611922565b5090565b600061195161194c846121e9565b6121c4565b90508281526020810184848401111561196957600080fd5b6119748482856123bd565b509392505050565b600061198f61198a8461221a565b6121c4565b9050828152602081018484840111156119a757600080fd5b6119b28482856123bd565b509392505050565b6000813590506119c9816128c5565b92915050565b6000813590506119de816128dc565b92915050565b6000813590506119f3816128f3565b92915050565b600081519050611a08816128f3565b92915050565b600082601f830112611a1f57600080fd5b8135611a2f84826020860161193e565b91505092915050565b600082601f830112611a4957600080fd5b8135611a5984826020860161197c565b91505092915050565b600081359050611a718161290a565b92915050565b600060208284031215611a8957600080fd5b6000611a97848285016119ba565b91505092915050565b60008060408385031215611ab357600080fd5b6000611ac1858286016119ba565b9250506020611ad2858286016119ba565b9150509250929050565b600080600060608486031215611af157600080fd5b6000611aff868287016119ba565b9350506020611b10868287016119ba565b9250506040611b2186828701611a62565b9150509250925092565b60008060008060808587031215611b4157600080fd5b6000611b4f878288016119ba565b9450506020611b60878288016119ba565b9350506040611b7187828801611a62565b925050606085013567ffffffffffffffff811115611b8e57600080fd5b611b9a87828801611a0e565b91505092959194509250565b60008060408385031215611bb957600080fd5b6000611bc7858286016119ba565b9250506020611bd8858286016119cf565b9150509250929050565b60008060408385031215611bf557600080fd5b6000611c03858286016119ba565b925050602083013567ffffffffffffffff811115611c2057600080fd5b611c2c85828601611a38565b9150509250929050565b60008060408385031215611c4957600080fd5b6000611c57858286016119ba565b9250506020611c6885828601611a62565b9150509250929050565b600060208284031215611c8457600080fd5b6000611c92848285016119e4565b91505092915050565b600060208284031215611cad57600080fd5b6000611cbb848285016119f9565b91505092915050565b600060208284031215611cd657600080fd5b6000611ce484828501611a62565b91505092915050565b611cf681612349565b82525050565b611d058161235b565b82525050565b6000611d168261224b565b611d208185612261565b9350611d308185602086016123cc565b611d3981612598565b840191505092915050565b6000611d4f82612256565b611d598185612272565b9350611d698185602086016123cc565b611d7281612598565b840191505092915050565b6000611d8882612256565b611d928185612283565b9350611da28185602086016123cc565b80840191505092915050565b6000611dbb603283612272565b9150611dc6826125a9565b604082019050919050565b6000611dde602583612272565b9150611de9826125f8565b604082019050919050565b6000611e01601c83612272565b9150611e0c82612647565b602082019050919050565b6000611e24602483612272565b9150611e2f82612670565b604082019050919050565b6000611e47601983612272565b9150611e52826126bf565b602082019050919050565b6000611e6a602983612272565b9150611e75826126e8565b604082019050919050565b6000611e8d602e83612272565b9150611e9882612737565b604082019050919050565b6000611eb0603e83612272565b9150611ebb82612786565b604082019050919050565b6000611ed3602083612272565b9150611ede826127d5565b602082019050919050565b6000611ef6601883612272565b9150611f01826127fe565b602082019050919050565b6000611f19602183612272565b9150611f2482612827565b604082019050919050565b6000611f3c602e83612272565b9150611f4782612876565b604082019050919050565b611f5b816123b3565b82525050565b6000611f6d8285611d7d565b9150611f798284611d7d565b91508190509392505050565b6000602082019050611f9a6000830184611ced565b92915050565b6000608082019050611fb56000830187611ced565b611fc26020830186611ced565b611fcf6040830185611f52565b8181036060830152611fe18184611d0b565b905095945050505050565b60006020820190506120016000830184611cfc565b92915050565b600060208201905081810360008301526120218184611d44565b905092915050565b6000602082019050818103600083015261204281611dae565b9050919050565b6000602082019050818103600083015261206281611dd1565b9050919050565b6000602082019050818103600083015261208281611df4565b9050919050565b600060208201905081810360008301526120a281611e17565b9050919050565b600060208201905081810360008301526120c281611e3a565b9050919050565b600060208201905081810360008301526120e281611e5d565b9050919050565b6000602082019050818103600083015261210281611e80565b9050919050565b6000602082019050818103600083015261212281611ea3565b9050919050565b6000602082019050818103600083015261214281611ec6565b9050919050565b6000602082019050818103600083015261216281611ee9565b9050919050565b6000602082019050818103600083015261218281611f0c565b9050919050565b600060208201905081810360008301526121a281611f2f565b9050919050565b60006020820190506121be6000830184611f52565b92915050565b60006121ce6121df565b90506121da8282612431565b919050565b6000604051905090565b600067ffffffffffffffff82111561220457612203612569565b5b61220d82612598565b9050602081019050919050565b600067ffffffffffffffff82111561223557612234612569565b5b61223e82612598565b9050602081019050919050565b600081519050919050565b600081519050919050565b600082825260208201905092915050565b600082825260208201905092915050565b600081905092915050565b6000612299826123b3565b91506122a4836123b3565b9250827fffffffffffffffffffffffffffffffffffffffffffffffffffffffffffffffff038211156122d9576122d86124dc565b5b828201905092915050565b60006122ef826123b3565b91506122fa836123b3565b92508261230a5761230961250b565b5b828204905092915050565b6000612320826123b3565b915061232b836123b3565b92508282101561233e5761233d6124dc565b5b828203905092915050565b600061235482612393565b9050919050565b60008115159050919050565b60007fffffffff0000000000000000000000000000000000000000000000000000000082169050919050565b600073ffffffffffffffffffffffffffffffffffffffff82169050919050565b6000819050919050565b82818337600083830152505050565b60005b838110156123ea5780820151818401526020810190506123cf565b838111156123f9576000848401525b50505050565b6000600282049050600182168061241757607f821691505b6020821081141561242b5761242a61253a565b5b50919050565b61243a82612598565b810181811067ffffffffffffffff8211171561245957612458612569565b5b80604052505050565b600061246d826123b3565b91507fffffffffffffffffffffffffffffffffffffffffffffffffffffffffffffffff8214156124a05761249f6124dc565b5b600182019050919050565b60006124b6826123b3565b91506124c1836123b3565b9250826124d1576124d061250b565b5b828206905092915050565b7f4e487b7100000000000000000000000000000000000000000000000000000000600052601160045260246000fd5b7f4e487b7100000000000000000000000000000000000000000000000000000000600052601260045260246000fd5b7f4e487b7100000000000000000000000000000000000000000000000000000000600052602260045260246000fd5b7f4e487b7100000000000000000000000000000000000000000000000000000000600052604160045260246000fd5b6000601f19601f8301169050919050565b7f4552433732313a207472616e7366657220746f206e6f6e20455243373231526560008201527f63656976657220696d706c656d656e7465720000000000000000000000000000602082015250565b7f4552433732313a207472616e736665722066726f6d20696e636f72726563742060008201527f6f776e6572000000000000000000000000000000000000000000000000000000602082015250565b7f4552433732313a20746f6b656e20616c7265616479206d696e74656400000000600082015250565b7f4552433732313a207472616e7366657220746f20746865207a65726f2061646460008201527f7265737300000000000000000000000000000000000000000000000000000000602082015250565b7f4552433732313a20617070726f766520746f2063616c6c657200000000000000600082015250565b7f4552433732313a2061646472657373207a65726f206973206e6f74206120766160008201527f6c6964206f776e65720000000000000000000000000000000000000000000000602082015250565b7f45524337323155524953746f726167653a2055524920736574206f66206e6f6e60008201527f6578697374656e7420746f6b656e000000000000000000000000000000000000602082015250565b7f4552433732313a20617070726f76652063616c6c6572206973206e6f7420746f60008201527f6b656e206f776e6572206e6f7220617070726f76656420666f7220616c6c0000602082015250565b7f4552433732313a206d696e7420746f20746865207a65726f2061646472657373600082015250565b7f4552433732313a20696e76616c696420746f6b656e2049440000000000000000600082015250565b7f4552433732313a20617070726f76616c20746f2063757272656e74206f776e6560008201527f7200000000000000000000000000000000000000000000000000000000000000602082015250565b7f4552433732313a2063616c6c6572206973206e6f7420746f6b656e206f776e6560008201527f72206e6f7220617070726f766564000000000000000000000000000000000000602082015250565b6128ce81612349565b81146128d957600080fd5b50565b6128e58161235b565b81146128f057600080fd5b50565b6128fc81612367565b811461290757600080fd5b50565b612913816123b3565b811461291e57600080fd5b5056fea2646970667358221220861d647f008133b00c544194dc20e80e5066044e54f443c064cec3c41d742d8164736f6c63430008040033",
  "linkReferences": {},
  "deployedLinkReferences": {}
}