{
  "_format": "hh-sol-artifact-1",
  "contractName": "MyNFT",
  "sourceName": "contracts/MyNFT.sol",
  "abi": [
    {
      "inputs": [],
      "stateMutability": "nonpayable",
      "type": "constructor"
    },
    {
      "anonymous": false,
      "inputs": [
        {
          "indexed": true,
          "internalType": "address",
          "name": "owner",
          "type": "address"
        },
        {
          "indexed": true,
          "internalType": "address",
          "name": "approved",
          "type": "address"
        },
        {
          "indexed": true,
          "internalType": "uint256",
          "name": "tokenId",
          "type": "uint256"
        }
      ],
      "name": "Approval",
      "type": "event"
    },
    {
      "anonymous": false,
      "inputs": [
        {
          "indexed": true,
          "internalType": "address",
          "name": "owner",
          "type": "address"
        },
        {
          "indexed": true,
          "internalType": "address",
          "name": "operator",
          "type": "address"
        },
        {
          "indexed": false,
          "internalType": "bool",
          "name": "approved",
          "type": "bool"
        }
      ],
      "name": "ApprovalForAll",
      "type": "event"
    },
    {
      "anonymous": false,
      "inputs": [
        {
          "indexed": true,
          "internalType": "address",
          "name": "from",
          "type": "address"
        },
        {
          "indexed": true,
          "internalType": "address",
          "name": "to",
          "type": "address"
        },
        {
          "indexed": true,
          "internalType": "uint256",
          "name": "tokenId",
          "type": "uint256"
        }
      ],
      "name": "Transfer",
      "type": "event"
    },
    {
      "inputs": [
        {
          "internalType": "address",
          "name": "to",
          "type": "address"
        },
        {
          "internalType": "uint256",
          "name": "tokenId",
          "type": "uint256"
        }
      ],
      "name": "approve",
      "outputs": [],
      "stateMutability": "nonpayable",
      "type": "function"
    },
    {
      "inputs": [
        {
          "internalType": "address",
          "name": "owner",
          "type": "address"
        }
      ],
      "name": "balanceOf",
      "outputs": [
        {
          "internalType": "uint256",
          "name": "",
          "type": "uint256"
        }
      ],
      "stateMutability": "view",
      "type": "function"
    },
    {
      "inputs": [
        {
          "internalType": "uint256",
          "name": "tokenId",
          "type": "uint256"
        }
      ],
      "name": "getApproved",
      "outputs": [
        {
          "internalType": "address",
          "name": "",
          "type": "address"
        }
      ],
      "stateMutability": "view",
      "type": "function"
    },
    {
      "inputs": [
        {
          "internalType": "address",
          "name": "owner",
          "type": "address"
        },
        {
          "internalType": "address",
          "name": "operator",
          "type": "address"
        }
      ],
      "name": "isApprovedForAll",
      "outputs": [
        {
          "internalType": "bool",
          "name": "",
          "type": "bool"
        }
      ],
      "stateMutability": "view",
      "type": "function"
    },
    {
      "inputs": [
        {
          "internalType": "address",
          "name": "recipient",
          "type": "address"
        },
        {
          "internalType": "string",
          "name": "tokenURI",
          "type": "string"
        }
      ],
      "name": "mintNFT",
      "outputs": [
        {
          "internalType": "uint256",
          "name": "",
          "type": "uint256"
        }
      ],
      "stateMutability": "nonpayable",
      "type": "function"
    },
    {
      "inputs": [],
      "name": "name",
      "outputs": [
        {
          "internalType": "string",
          "name": "",
          "type": "string"
        }
      ],
      "stateMutability": "view",
      "type": "function"
    },
    {
      "inputs": [
        {
          "internalType": "uint256",
          "name": "tokenId",
          "type": "uint256"
        }
      ],
      "name": "ownerOf",
      "outputs": [
        {
          "internalType": "address",
          "name": "",
          "type": "address"
        }
      ],
      "stateMutability": "view",
      "type": "function"
    },
    {
      "inputs": [
        {
          "internalType": "address",
          "name": "from",
          "type": "address"
        },
        {
          "internalType": "address",
          "name": "to",
          "type": "address"
        },
        {
          "internalType": "uint256",
          "name": "tokenId",
          "type": "uint256"
        }
      ],
      "name": "safeTransferFrom",
      "outputs": [],
      "stateMutability": "nonpayable",
      "type": "function"
    },
    {
      "inputs": [
        {
          "internalType": "address",
          "name": "from",
          "type": "address"
        },
        {
          "internalType": "address",
          "name": "to",
          "type": "address"
        },
        {
          "internalType": "uint256",
          "name": "tokenId",
          "type": "uint256"
        },
        {
          "internalType": "bytes",
          "name": "data",
          "type": "bytes"
        }
      ],
      "name": "safeTransferFrom",
      "outputs": [],
      "stateMutability": "nonpayable",
      "type": "function"
    },
    {
      "inputs": [
        {
          "internalType": "address",
          "name": "operator",
          "type": "address"
        },
        {
          "internalType": "bool",
          "name": "approved",
          "type": "bool"
        }
      ],
      "name": "setApprovalForAll",
      "outputs": [],
      "stateMutability": "nonpayable",
      "type": "function"
    },
    {
      "inputs": [
        {
          "internalType": "bytes4",
          "name": "interfaceId",
          "type": "bytes4"
        }
      ],
      "name": "supportsInterface",
      "outputs": [
        {
          "internalType": "bool",
          "name": "",
          "type": "bool"
        }
      ],
      "stateMutability": "view",
      "type": "function"
    },
    {
      "inputs": [],
      "name": "symbol",
      "outputs": [
        {
          "internalType": "string",
          "name": "",
          "type": "string"
        }
      ],
      "stateMutability": "view",
      "type": "function"
    },
    {
      "inputs": [
        {
          "internalType": "uint256",
          "name": "tokenId",
          "type": "uint256"
        }
      ],
      "name": "tokenURI",
      "outputs": [
        {
          "internalType": "string",
          "name": "",
          "type": "string"
        }
      ],
      "stateMutability": "view",
      "type": "function"
    },
    {
      "inputs": [
        {
          "internalType": "address",
          "name": "from",
          "type": "address"
        },
        {
          "internalType": "address",
          "name": "to",
          "type": "address"
        },
        {
          "internalType": "uint256",
          "name": "tokenId",
          "type": "uint256"
        }
      ],
      "name": "transferFrom",
      "outputs": [],
      "stateMutability": "nonpayable",
      "type": "function"
    },
    {
      "inputs": [],
      "name": "viewNFT",
      "outputs": [
        {
          "internalType": "string",
          "name": "",
          "type": "string"
        }
      ],
      "stateMutability": "view",
      "type": "function"
    }
  ],
  "bytecode": "0x60806040523480156200001157600080fd5b506040518060400160405280600581526020017f4d794e46540000000000000000000000000000000000000000000000000000008152506040518060400160405280600381526020017f4e46540000000000000000000000000000000000000000000000000000000000815250816000908051906020019062000096929190620000b8565b508060019080519060200190620000af929190620000b8565b505050620001cd565b828054620000c69062000168565b90600052602060002090601f016020900481019282620000ea576000855562000136565b82601f106200010557805160ff191683800117855562000136565b8280016001018555821562000136579182015b828111156200013557825182559160200191906001019062000118565b5b50905062000145919062000149565b5090565b5b80821115620001645760008160009055506001016200014a565b5090565b600060028204905060018216806200018157607f821691505b602082108114156200019857620001976200019e565b5b50919050565b7f4e487b7100000000000000000000000000000000000000000000000000000000600052602260045260246000fd5b6128bf80620001dd6000396000f3fe608060405234801561001057600080fd5b50600436106100f55760003560e01c80636352211e11610097578063b88d4fde11610066578063b88d4fde14610284578063c87b56dd146102a0578063e985e9c5146102d0578063eacabe1414610300576100f5565b80636352211e146101ea57806370a082311461021a57806395d89b411461024a578063a22cb46514610268576100f5565b8063095ea7b3116100d3578063095ea7b31461017857806323b872dd1461019457806342842e0e146101b0578063609f6428146101cc576100f5565b806301ffc9a7146100fa57806306fdde031461012a578063081812fc14610148575b600080fd5b610114600480360381019061010f9190611bda565b610330565b6040516101219190611f54565b60405180910390f35b610132610412565b60405161013f9190611f6f565b60405180910390f35b610162600480360381019061015d9190611c2c565b6104a4565b60405161016f9190611eed565b60405180910390f35b610192600480360381019061018d9190611b9e565b6104ea565b005b6101ae60048036038101906101a99190611a44565b610602565b005b6101ca60048036038101906101c59190611a44565b610662565b005b6101d4610682565b6040516101e19190611f6f565b60405180910390f35b61020460048036038101906101ff9190611c2c565b6106a7565b6040516102119190611eed565b60405180910390f35b610234600480360381019061022f91906119df565b610759565b6040516102419190612111565b60405180910390f35b610252610811565b60405161025f9190611f6f565b60405180910390f35b610282600480360381019061027d9190611b0e565b6108a3565b005b61029e60048036038101906102999190611a93565b6108b9565b005b6102ba60048036038101906102b59190611c2c565b61091b565b6040516102c79190611f6f565b60405180910390f35b6102ea60048036038101906102e59190611a08565b610a2e565b6040516102f79190611f54565b60405180910390f35b61031a60048036038101906103159190611b4a565b610ac2565b6040516103279190612111565b60405180910390f35b60007f80ac58cd000000000000000000000000000000000000000000000000000000007bffffffffffffffffffffffffffffffffffffffffffffffffffffffff1916827bffffffffffffffffffffffffffffffffffffffffffffffffffffffff191614806103fb57507f5b5e139f000000000000000000000000000000000000000000000000000000007bffffffffffffffffffffffffffffffffffffffffffffffffffffffff1916827bffffffffffffffffffffffffffffffffffffffffffffffffffffffff1916145b8061040b575061040a82610afa565b5b9050919050565b60606000805461042190612367565b80601f016020809104026020016040519081016040528092919081815260200182805461044d90612367565b801561049a5780601f1061046f5761010080835404028352916020019161049a565b820191906000526020600020905b81548152906001019060200180831161047d57829003601f168201915b5050505050905090565b60006104af82610b64565b6004600083815260200190815260200160002060009054906101000a900473ffffffffffffffffffffffffffffffffffffffff169050919050565b60006104f5826106a7565b90508073ffffffffffffffffffffffffffffffffffffffff168373ffffffffffffffffffffffffffffffffffffffff161415610566576040517f08c379a000000000000000000000000000000000000000000000000000000000815260040161055d906120d1565b60405180910390fd5b8073ffffffffffffffffffffffffffffffffffffffff16610585610baf565b73ffffffffffffffffffffffffffffffffffffffff1614806105b457506105b3816105ae610baf565b610a2e565b5b6105f3576040517f08c379a00000000000000000000000000000000000000000000000000000000081526004016105ea90612071565b60405180910390fd5b6105fd8383610bb7565b505050565b61061361060d610baf565b82610c70565b610652576040517f08c379a0000000000000000000000000000000000000000000000000000000008152600401610649906120f1565b60405180910390fd5b61065d838383610d05565b505050565b61067d838383604051806020016040528060008152506108b9565b505050565b606060006106906007610f6c565b9050600061069d8261091b565b9050809250505090565b6000806002600084815260200190815260200160002060009054906101000a900473ffffffffffffffffffffffffffffffffffffffff169050600073ffffffffffffffffffffffffffffffffffffffff168173ffffffffffffffffffffffffffffffffffffffff161415610750576040517f08c379a0000000000000000000000000000000000000000000000000000000008152600401610747906120b1565b60405180910390fd5b80915050919050565b60008073ffffffffffffffffffffffffffffffffffffffff168273ffffffffffffffffffffffffffffffffffffffff1614156107ca576040517f08c379a00000000000000000000000000000000000000000000000000000000081526004016107c190612031565b60405180910390fd5b600360008373ffffffffffffffffffffffffffffffffffffffff1673ffffffffffffffffffffffffffffffffffffffff168152602001908152602001600020549050919050565b60606001805461082090612367565b80601f016020809104026020016040519081016040528092919081815260200182805461084c90612367565b80156108995780601f1061086e57610100808354040283529160200191610899565b820191906000526020600020905b81548152906001019060200180831161087c57829003601f168201915b5050505050905090565b6108b56108ae610baf565b8383610f7a565b5050565b6108ca6108c4610baf565b83610c70565b610909576040517f08c379a0000000000000000000000000000000000000000000000000000000008152600401610900906120f1565b60405180910390fd5b610915848484846110e7565b50505050565b606061092682610b64565b600060066000848152602001908152602001600020805461094690612367565b80601f016020809104026020016040519081016040528092919081815260200182805461097290612367565b80156109bf5780601f10610994576101008083540402835291602001916109bf565b820191906000526020600020905b8154815290600101906020018083116109a257829003601f168201915b5050505050905060006109d0611143565b90506000815114156109e6578192505050610a29565b600082511115610a1b578082604051602001610a03929190611ec9565b60405160208183030381529060405292505050610a29565b610a248461115a565b925050505b919050565b6000600560008473ffffffffffffffffffffffffffffffffffffffff1673ffffffffffffffffffffffffffffffffffffffff16815260200190815260200160002060008373ffffffffffffffffffffffffffffffffffffffff1673ffffffffffffffffffffffffffffffffffffffff16815260200190815260200160002060009054906101000a900460ff16905092915050565b6000610ace60076111c2565b6000610ada6007610f6c565b9050610ae684826111d8565b610af081846113b2565b8091505092915050565b60007f01ffc9a7000000000000000000000000000000000000000000000000000000007bffffffffffffffffffffffffffffffffffffffffffffffffffffffff1916827bffffffffffffffffffffffffffffffffffffffffffffffffffffffff1916149050919050565b610b6d81611426565b610bac576040517f08c379a0000000000000000000000000000000000000000000000000000000008152600401610ba3906120b1565b60405180910390fd5b50565b600033905090565b816004600083815260200190815260200160002060006101000a81548173ffffffffffffffffffffffffffffffffffffffff021916908373ffffffffffffffffffffffffffffffffffffffff160217905550808273ffffffffffffffffffffffffffffffffffffffff16610c2a836106a7565b73ffffffffffffffffffffffffffffffffffffffff167f8c5be1e5ebec7d5bd14f71427d1e84f3dd0314c0f7b2291e5b200ac8c7c3b92560405160405180910390a45050565b600080610c7c836106a7565b90508073ffffffffffffffffffffffffffffffffffffffff168473ffffffffffffffffffffffffffffffffffffffff161480610cbe5750610cbd8185610a2e565b5b80610cfc57508373ffffffffffffffffffffffffffffffffffffffff16610ce4846104a4565b73ffffffffffffffffffffffffffffffffffffffff16145b91505092915050565b8273ffffffffffffffffffffffffffffffffffffffff16610d25826106a7565b73ffffffffffffffffffffffffffffffffffffffff1614610d7b576040517f08c379a0000000000000000000000000000000000000000000000000000000008152600401610d7290611fb1565b60405180910390fd5b600073ffffffffffffffffffffffffffffffffffffffff168273ffffffffffffffffffffffffffffffffffffffff161415610deb576040517f08c379a0000000000000000000000000000000000000000000000000000000008152600401610de290611ff1565b60405180910390fd5b610df6838383611492565b610e01600082610bb7565b6001600360008573ffffffffffffffffffffffffffffffffffffffff1673ffffffffffffffffffffffffffffffffffffffff1681526020019081526020016000206000828254610e51919061227d565b925050819055506001600360008473ffffffffffffffffffffffffffffffffffffffff1673ffffffffffffffffffffffffffffffffffffffff1681526020019081526020016000206000828254610ea891906121f6565b92505081905550816002600083815260200190815260200160002060006101000a81548173ffffffffffffffffffffffffffffffffffffffff021916908373ffffffffffffffffffffffffffffffffffffffff160217905550808273ffffffffffffffffffffffffffffffffffffffff168473ffffffffffffffffffffffffffffffffffffffff167fddf252ad1be2c89b69c2b068fc378daa952ba7f163c4a11628f55a4df523b3ef60405160405180910390a4610f67838383611497565b505050565b600081600001549050919050565b8173ffffffffffffffffffffffffffffffffffffffff168373ffffffffffffffffffffffffffffffffffffffff161415610fe9576040517f08c379a0000000000000000000000000000000000000000000000000000000008152600401610fe090612011565b60405180910390fd5b80600560008573ffffffffffffffffffffffffffffffffffffffff1673ffffffffffffffffffffffffffffffffffffffff16815260200190815260200160002060008473ffffffffffffffffffffffffffffffffffffffff1673ffffffffffffffffffffffffffffffffffffffff16815260200190815260200160002060006101000a81548160ff0219169083151502179055508173ffffffffffffffffffffffffffffffffffffffff168373ffffffffffffffffffffffffffffffffffffffff167f17307eab39ab6107e8899845ad3d59bd9653f200f220920489ca2b5937696c31836040516110da9190611f54565b60405180910390a3505050565b6110f2848484610d05565b6110fe8484848461149c565b61113d576040517f08c379a000000000000000000000000000000000000000000000000000000000815260040161113490611f91565b60405180910390fd5b50505050565b606060405180602001604052806000815250905090565b606061116582610b64565b600061116f611143565b9050600081511161118f57604051806020016040528060008152506111ba565b8061119984611633565b6040516020016111aa929190611ec9565b6040516020818303038152906040525b915050919050565b6001816000016000828254019250508190555050565b600073ffffffffffffffffffffffffffffffffffffffff168273ffffffffffffffffffffffffffffffffffffffff161415611248576040517f08c379a000000000000000000000000000000000000000000000000000000000815260040161123f90612091565b60405180910390fd5b61125181611426565b15611291576040517f08c379a000000000000000000000000000000000000000000000000000000000815260040161128890611fd1565b60405180910390fd5b61129d60008383611492565b6001600360008473ffffffffffffffffffffffffffffffffffffffff1673ffffffffffffffffffffffffffffffffffffffff16815260200190815260200160002060008282546112ed91906121f6565b92505081905550816002600083815260200190815260200160002060006101000a81548173ffffffffffffffffffffffffffffffffffffffff021916908373ffffffffffffffffffffffffffffffffffffffff160217905550808273ffffffffffffffffffffffffffffffffffffffff16600073ffffffffffffffffffffffffffffffffffffffff167fddf252ad1be2c89b69c2b068fc378daa952ba7f163c4a11628f55a4df523b3ef60405160405180910390a46113ae60008383611497565b5050565b6113bb82611426565b6113fa576040517f08c379a00000000000000000000000000000000000000000000000000000000081526004016113f190612051565b60405180910390fd5b80600660008481526020019081526020016000209080519060200190611421929190611803565b505050565b60008073ffffffffffffffffffffffffffffffffffffffff166002600084815260200190815260200160002060009054906101000a900473ffffffffffffffffffffffffffffffffffffffff1673ffffffffffffffffffffffffffffffffffffffff1614159050919050565b505050565b505050565b60006114bd8473ffffffffffffffffffffffffffffffffffffffff166117e0565b15611626578373ffffffffffffffffffffffffffffffffffffffff1663150b7a026114e6610baf565b8786866040518563ffffffff1660e01b81526004016115089493929190611f08565b602060405180830381600087803b15801561152257600080fd5b505af192505050801561155357506040513d601f19601f820116820180604052508101906115509190611c03565b60015b6115d6573d8060008114611583576040519150601f19603f3d011682016040523d82523d6000602084013e611588565b606091505b506000815114156115ce576040517f08c379a00000000000000000000000000000000000000000000000000000000081526004016115c590611f91565b60405180910390fd5b805181602001fd5b63150b7a0260e01b7bffffffffffffffffffffffffffffffffffffffffffffffffffffffff1916817bffffffffffffffffffffffffffffffffffffffffffffffffffffffff19161491505061162b565b600190505b949350505050565b6060600082141561167b576040518060400160405280600181526020017f300000000000000000000000000000000000000000000000000000000000000081525090506117db565b600082905060005b600082146116ad578080611696906123ca565b915050600a826116a6919061224c565b9150611683565b60008167ffffffffffffffff8111156116ef577f4e487b7100000000000000000000000000000000000000000000000000000000600052604160045260246000fd5b6040519080825280601f01601f1916602001820160405280156117215781602001600182028036833780820191505090505b5090505b600085146117d45760018261173a919061227d565b9150600a856117499190612413565b603061175591906121f6565b60f81b818381518110611791577f4e487b7100000000000000000000000000000000000000000000000000000000600052603260045260246000fd5b60200101907effffffffffffffffffffffffffffffffffffffffffffffffffffffffffffff1916908160001a905350600a856117cd919061224c565b9450611725565b8093505050505b919050565b6000808273ffffffffffffffffffffffffffffffffffffffff163b119050919050565b82805461180f90612367565b90600052602060002090601f0160209004810192826118315760008555611878565b82601f1061184a57805160ff1916838001178555611878565b82800160010185558215611878579182015b8281111561187757825182559160200191906001019061185c565b5b5090506118859190611889565b5090565b5b808211156118a257600081600090555060010161188a565b5090565b60006118b96118b484612151565b61212c565b9050828152602081018484840111156118d157600080fd5b6118dc848285612325565b509392505050565b60006118f76118f284612182565b61212c565b90508281526020810184848401111561190f57600080fd5b61191a848285612325565b509392505050565b6000813590506119318161282d565b92915050565b60008135905061194681612844565b92915050565b60008135905061195b8161285b565b92915050565b6000815190506119708161285b565b92915050565b600082601f83011261198757600080fd5b81356119978482602086016118a6565b91505092915050565b600082601f8301126119b157600080fd5b81356119c18482602086016118e4565b91505092915050565b6000813590506119d981612872565b92915050565b6000602082840312156119f157600080fd5b60006119ff84828501611922565b91505092915050565b60008060408385031215611a1b57600080fd5b6000611a2985828601611922565b9250506020611a3a85828601611922565b9150509250929050565b600080600060608486031215611a5957600080fd5b6000611a6786828701611922565b9350506020611a7886828701611922565b9250506040611a89868287016119ca565b9150509250925092565b60008060008060808587031215611aa957600080fd5b6000611ab787828801611922565b9450506020611ac887828801611922565b9350506040611ad9878288016119ca565b925050606085013567ffffffffffffffff811115611af657600080fd5b611b0287828801611976565b91505092959194509250565b60008060408385031215611b2157600080fd5b6000611b2f85828601611922565b9250506020611b4085828601611937565b9150509250929050565b60008060408385031215611b5d57600080fd5b6000611b6b85828601611922565b925050602083013567ffffffffffffffff811115611b8857600080fd5b611b94858286016119a0565b9150509250929050565b60008060408385031215611bb157600080fd5b6000611bbf85828601611922565b9250506020611bd0858286016119ca565b9150509250929050565b600060208284031215611bec57600080fd5b6000611bfa8482850161194c565b91505092915050565b600060208284031215611c1557600080fd5b6000611c2384828501611961565b91505092915050565b600060208284031215611c3e57600080fd5b6000611c4c848285016119ca565b91505092915050565b611c5e816122b1565b82525050565b611c6d816122c3565b82525050565b6000611c7e826121b3565b611c8881856121c9565b9350611c98818560208601612334565b611ca181612500565b840191505092915050565b6000611cb7826121be565b611cc181856121da565b9350611cd1818560208601612334565b611cda81612500565b840191505092915050565b6000611cf0826121be565b611cfa81856121eb565b9350611d0a818560208601612334565b80840191505092915050565b6000611d236032836121da565b9150611d2e82612511565b604082019050919050565b6000611d466025836121da565b9150611d5182612560565b604082019050919050565b6000611d69601c836121da565b9150611d74826125af565b602082019050919050565b6000611d8c6024836121da565b9150611d97826125d8565b604082019050919050565b6000611daf6019836121da565b9150611dba82612627565b602082019050919050565b6000611dd26029836121da565b9150611ddd82612650565b604082019050919050565b6000611df5602e836121da565b9150611e008261269f565b604082019050919050565b6000611e18603e836121da565b9150611e23826126ee565b604082019050919050565b6000611e3b6020836121da565b9150611e468261273d565b602082019050919050565b6000611e5e6018836121da565b9150611e6982612766565b602082019050919050565b6000611e816021836121da565b9150611e8c8261278f565b604082019050919050565b6000611ea4602e836121da565b9150611eaf826127de565b604082019050919050565b611ec38161231b565b82525050565b6000611ed58285611ce5565b9150611ee18284611ce5565b91508190509392505050565b6000602082019050611f026000830184611c55565b92915050565b6000608082019050611f1d6000830187611c55565b611f2a6020830186611c55565b611f376040830185611eba565b8181036060830152611f498184611c73565b905095945050505050565b6000602082019050611f696000830184611c64565b92915050565b60006020820190508181036000830152611f898184611cac565b905092915050565b60006020820190508181036000830152611faa81611d16565b9050919050565b60006020820190508181036000830152611fca81611d39565b9050919050565b60006020820190508181036000830152611fea81611d5c565b9050919050565b6000602082019050818103600083015261200a81611d7f565b9050919050565b6000602082019050818103600083015261202a81611da2565b9050919050565b6000602082019050818103600083015261204a81611dc5565b9050919050565b6000602082019050818103600083015261206a81611de8565b9050919050565b6000602082019050818103600083015261208a81611e0b565b9050919050565b600060208201905081810360008301526120aa81611e2e565b9050919050565b600060208201905081810360008301526120ca81611e51565b9050919050565b600060208201905081810360008301526120ea81611e74565b9050919050565b6000602082019050818103600083015261210a81611e97565b9050919050565b60006020820190506121266000830184611eba565b92915050565b6000612136612147565b90506121428282612399565b919050565b6000604051905090565b600067ffffffffffffffff82111561216c5761216b6124d1565b5b61217582612500565b9050602081019050919050565b600067ffffffffffffffff82111561219d5761219c6124d1565b5b6121a682612500565b9050602081019050919050565b600081519050919050565b600081519050919050565b600082825260208201905092915050565b600082825260208201905092915050565b600081905092915050565b60006122018261231b565b915061220c8361231b565b9250827fffffffffffffffffffffffffffffffffffffffffffffffffffffffffffffffff0382111561224157612240612444565b5b828201905092915050565b60006122578261231b565b91506122628361231b565b92508261227257612271612473565b5b828204905092915050565b60006122888261231b565b91506122938361231b565b9250828210156122a6576122a5612444565b5b828203905092915050565b60006122bc826122fb565b9050919050565b60008115159050919050565b60007fffffffff0000000000000000000000000000000000000000000000000000000082169050919050565b600073ffffffffffffffffffffffffffffffffffffffff82169050919050565b6000819050919050565b82818337600083830152505050565b60005b83811015612352578082015181840152602081019050612337565b83811115612361576000848401525b50505050565b6000600282049050600182168061237f57607f821691505b60208210811415612393576123926124a2565b5b50919050565b6123a282612500565b810181811067ffffffffffffffff821117156123c1576123c06124d1565b5b80604052505050565b60006123d58261231b565b91507fffffffffffffffffffffffffffffffffffffffffffffffffffffffffffffffff82141561240857612407612444565b5b600182019050919050565b600061241e8261231b565b91506124298361231b565b92508261243957612438612473565b5b828206905092915050565b7f4e487b7100000000000000000000000000000000000000000000000000000000600052601160045260246000fd5b7f4e487b7100000000000000000000000000000000000000000000000000000000600052601260045260246000fd5b7f4e487b7100000000000000000000000000000000000000000000000000000000600052602260045260246000fd5b7f4e487b7100000000000000000000000000000000000000000000000000000000600052604160045260246000fd5b6000601f19601f8301169050919050565b7f4552433732313a207472616e7366657220746f206e6f6e20455243373231526560008201527f63656976657220696d706c656d656e7465720000000000000000000000000000602082015250565b7f4552433732313a207472616e736665722066726f6d20696e636f72726563742060008201527f6f776e6572000000000000000000000000000000000000000000000000000000602082015250565b7f4552433732313a20746f6b656e20616c7265616479206d696e74656400000000600082015250565b7f4552433732313a207472616e7366657220746f20746865207a65726f2061646460008201527f7265737300000000000000000000000000000000000000000000000000000000602082015250565b7f4552433732313a20617070726f766520746f2063616c6c657200000000000000600082015250565b7f4552433732313a2061646472657373207a65726f206973206e6f74206120766160008201527f6c6964206f776e65720000000000000000000000000000000000000000000000602082015250565b7f45524337323155524953746f726167653a2055524920736574206f66206e6f6e60008201527f6578697374656e7420746f6b656e000000000000000000000000000000000000602082015250565b7f4552433732313a20617070726f76652063616c6c6572206973206e6f7420746f60008201527f6b656e206f776e6572206e6f7220617070726f76656420666f7220616c6c0000602082015250565b7f4552433732313a206d696e7420746f20746865207a65726f2061646472657373600082015250565b7f4552433732313a20696e76616c696420746f6b656e2049440000000000000000600082015250565b7f4552433732313a20617070726f76616c20746f2063757272656e74206f776e6560008201527f7200000000000000000000000000000000000000000000000000000000000000602082015250565b7f4552433732313a2063616c6c6572206973206e6f7420746f6b656e206f776e6560008201527f72206e6f7220617070726f766564000000000000000000000000000000000000602082015250565b612836816122b1565b811461284157600080fd5b50565b61284d816122c3565b811461285857600080fd5b50565b612864816122cf565b811461286f57600080fd5b50565b61287b8161231b565b811461288657600080fd5b5056fea26469706673582212205559e3332972156bb2c2c2f0f7164b79a1f4556f3c31dee722208cfa9219251464736f6c63430008040033",
  "linkReferences": {},
  "deployedLinkReferences": {}
}